{
  "_format": "hh-sol-artifact-1",
  "contractName": "Domains",
  "sourceName": "contracts/Domains.sol",
  "abi": [
    {
      "inputs": [
        {
          "internalType": "string",
          "name": "_tld",
          "type": "string"
        }
      ],
      "stateMutability": "payable",
      "type": "constructor"
    },
    {
      "inputs": [],
      "name": "AlreadyRegistered",
      "type": "error"
    },
    {
      "inputs": [
        {
          "internalType": "string",
          "name": "name",
          "type": "string"
        }
      ],
      "name": "InvalidName",
      "type": "error"
    },
    {
      "inputs": [],
      "name": "Unauthorized",
      "type": "error"
    },
    {
      "anonymous": false,
      "inputs": [
        {
          "indexed": true,
          "internalType": "address",
          "name": "owner",
          "type": "address"
        },
        {
          "indexed": true,
          "internalType": "address",
          "name": "approved",
          "type": "address"
        },
        {
          "indexed": true,
          "internalType": "uint256",
          "name": "tokenId",
          "type": "uint256"
        }
      ],
      "name": "Approval",
      "type": "event"
    },
    {
      "anonymous": false,
      "inputs": [
        {
          "indexed": true,
          "internalType": "address",
          "name": "owner",
          "type": "address"
        },
        {
          "indexed": true,
          "internalType": "address",
          "name": "operator",
          "type": "address"
        },
        {
          "indexed": false,
          "internalType": "bool",
          "name": "approved",
          "type": "bool"
        }
      ],
      "name": "ApprovalForAll",
      "type": "event"
    },
    {
      "anonymous": false,
      "inputs": [
        {
          "indexed": true,
          "internalType": "address",
          "name": "from",
          "type": "address"
        },
        {
          "indexed": true,
          "internalType": "address",
          "name": "to",
          "type": "address"
        },
        {
          "indexed": true,
          "internalType": "uint256",
          "name": "tokenId",
          "type": "uint256"
        }
      ],
      "name": "Transfer",
      "type": "event"
    },
    {
      "inputs": [
        {
          "internalType": "address",
          "name": "to",
          "type": "address"
        },
        {
          "internalType": "uint256",
          "name": "tokenId",
          "type": "uint256"
        }
      ],
      "name": "approve",
      "outputs": [],
      "stateMutability": "nonpayable",
      "type": "function"
    },
    {
      "inputs": [
        {
          "internalType": "address",
          "name": "owner",
          "type": "address"
        }
      ],
      "name": "balanceOf",
      "outputs": [
        {
          "internalType": "uint256",
          "name": "",
          "type": "uint256"
        }
      ],
      "stateMutability": "view",
      "type": "function"
    },
    {
      "inputs": [
        {
          "internalType": "string",
          "name": "",
          "type": "string"
        }
      ],
      "name": "domains",
      "outputs": [
        {
          "internalType": "address",
          "name": "",
          "type": "address"
        }
      ],
      "stateMutability": "view",
      "type": "function"
    },
    {
      "inputs": [
        {
          "internalType": "string",
          "name": "name",
          "type": "string"
        }
      ],
      "name": "getAddress",
      "outputs": [
        {
          "internalType": "address",
          "name": "",
          "type": "address"
        }
      ],
      "stateMutability": "view",
      "type": "function"
    },
    {
      "inputs": [
        {
          "internalType": "uint256",
          "name": "tokenId",
          "type": "uint256"
        }
      ],
      "name": "getApproved",
      "outputs": [
        {
          "internalType": "address",
          "name": "",
          "type": "address"
        }
      ],
      "stateMutability": "view",
      "type": "function"
    },
    {
      "inputs": [],
      "name": "getName",
      "outputs": [
        {
          "internalType": "string[]",
          "name": "",
          "type": "string[]"
        }
      ],
      "stateMutability": "view",
      "type": "function"
    },
    {
      "inputs": [
        {
          "internalType": "string",
          "name": "name",
          "type": "string"
        }
      ],
      "name": "getRecord",
      "outputs": [
        {
          "internalType": "string",
          "name": "",
          "type": "string"
        }
      ],
      "stateMutability": "view",
      "type": "function"
    },
    {
      "inputs": [
        {
          "internalType": "address",
          "name": "owner",
          "type": "address"
        },
        {
          "internalType": "address",
          "name": "operator",
          "type": "address"
        }
      ],
      "name": "isApprovedForAll",
      "outputs": [
        {
          "internalType": "bool",
          "name": "",
          "type": "bool"
        }
      ],
      "stateMutability": "view",
      "type": "function"
    },
    {
      "inputs": [],
      "name": "isOwner",
      "outputs": [
        {
          "internalType": "bool",
          "name": "",
          "type": "bool"
        }
      ],
      "stateMutability": "view",
      "type": "function"
    },
    {
      "inputs": [],
      "name": "name",
      "outputs": [
        {
          "internalType": "string",
          "name": "",
          "type": "string"
        }
      ],
      "stateMutability": "view",
      "type": "function"
    },
    {
      "inputs": [
        {
          "internalType": "uint256",
          "name": "",
          "type": "uint256"
        }
      ],
      "name": "names",
      "outputs": [
        {
          "internalType": "string",
          "name": "",
          "type": "string"
        }
      ],
      "stateMutability": "view",
      "type": "function"
    },
    {
      "inputs": [],
      "name": "owner",
      "outputs": [
        {
          "internalType": "address payable",
          "name": "",
          "type": "address"
        }
      ],
      "stateMutability": "view",
      "type": "function"
    },
    {
      "inputs": [
        {
          "internalType": "uint256",
          "name": "tokenId",
          "type": "uint256"
        }
      ],
      "name": "ownerOf",
      "outputs": [
        {
          "internalType": "address",
          "name": "",
          "type": "address"
        }
      ],
      "stateMutability": "view",
      "type": "function"
    },
    {
      "inputs": [
        {
          "internalType": "string",
          "name": "name",
          "type": "string"
        }
      ],
      "name": "price",
      "outputs": [
        {
          "internalType": "uint256",
          "name": "",
          "type": "uint256"
        }
      ],
      "stateMutability": "pure",
      "type": "function"
    },
    {
      "inputs": [
        {
          "internalType": "string",
          "name": "",
          "type": "string"
        }
      ],
      "name": "records",
      "outputs": [
        {
          "internalType": "string",
          "name": "",
          "type": "string"
        }
      ],
      "stateMutability": "view",
      "type": "function"
    },
    {
      "inputs": [
        {
          "internalType": "string",
          "name": "name",
          "type": "string"
        }
      ],
      "name": "register",
      "outputs": [],
      "stateMutability": "payable",
      "type": "function"
    },
    {
      "inputs": [
        {
          "internalType": "address",
          "name": "from",
          "type": "address"
        },
        {
          "internalType": "address",
          "name": "to",
          "type": "address"
        },
        {
          "internalType": "uint256",
          "name": "tokenId",
          "type": "uint256"
        }
      ],
      "name": "safeTransferFrom",
      "outputs": [],
      "stateMutability": "nonpayable",
      "type": "function"
    },
    {
      "inputs": [
        {
          "internalType": "address",
          "name": "from",
          "type": "address"
        },
        {
          "internalType": "address",
          "name": "to",
          "type": "address"
        },
        {
          "internalType": "uint256",
          "name": "tokenId",
          "type": "uint256"
        },
        {
          "internalType": "bytes",
          "name": "_data",
          "type": "bytes"
        }
      ],
      "name": "safeTransferFrom",
      "outputs": [],
      "stateMutability": "nonpayable",
      "type": "function"
    },
    {
      "inputs": [
        {
          "internalType": "address",
          "name": "operator",
          "type": "address"
        },
        {
          "internalType": "bool",
          "name": "approved",
          "type": "bool"
        }
      ],
      "name": "setApprovalForAll",
      "outputs": [],
      "stateMutability": "nonpayable",
      "type": "function"
    },
    {
      "inputs": [
        {
          "internalType": "string",
          "name": "name",
          "type": "string"
        },
        {
          "internalType": "string",
          "name": "record",
          "type": "string"
        }
      ],
      "name": "setRecord",
      "outputs": [],
      "stateMutability": "nonpayable",
      "type": "function"
    },
    {
      "inputs": [
        {
          "internalType": "bytes4",
          "name": "interfaceId",
          "type": "bytes4"
        }
      ],
      "name": "supportsInterface",
      "outputs": [
        {
          "internalType": "bool",
          "name": "",
          "type": "bool"
        }
      ],
      "stateMutability": "view",
      "type": "function"
    },
    {
      "inputs": [],
      "name": "symbol",
      "outputs": [
        {
          "internalType": "string",
          "name": "",
          "type": "string"
        }
      ],
      "stateMutability": "view",
      "type": "function"
    },
    {
      "inputs": [],
      "name": "tld",
      "outputs": [
        {
          "internalType": "string",
          "name": "",
          "type": "string"
        }
      ],
      "stateMutability": "view",
      "type": "function"
    },
    {
      "inputs": [
        {
          "internalType": "uint256",
          "name": "tokenId",
          "type": "uint256"
        }
      ],
      "name": "tokenURI",
      "outputs": [
        {
          "internalType": "string",
          "name": "",
          "type": "string"
        }
      ],
      "stateMutability": "view",
      "type": "function"
    },
    {
      "inputs": [
        {
          "internalType": "address",
          "name": "from",
          "type": "address"
        },
        {
          "internalType": "address",
          "name": "to",
          "type": "address"
        },
        {
          "internalType": "uint256",
          "name": "tokenId",
          "type": "uint256"
        }
      ],
      "name": "transferFrom",
      "outputs": [],
      "stateMutability": "nonpayable",
      "type": "function"
    },
    {
      "inputs": [
        {
          "internalType": "string",
          "name": "name",
          "type": "string"
        }
      ],
      "name": "valid",
      "outputs": [
        {
          "internalType": "bool",
          "name": "",
          "type": "bool"
        }
      ],
      "stateMutability": "pure",
      "type": "function"
    },
    {
      "inputs": [],
      "name": "withdraw",
      "outputs": [],
      "stateMutability": "nonpayable",
      "type": "function"
    }
  ],
  "bytecode": "0x6080604052604051806107a001604052806107668152602001620052136107669139600a908051906020019062000038929190620002c8565b506040518060400160405280600d81526020017f3c2f746578743e3c2f7376673e00000000000000000000000000000000000000815250600b908051906020019062000086929190620002c8565b5060405162005979380380620059798339818101604052810190620000ac919062000515565b6040518060400160405280601081526020017f4f574c204e616d652053657276696365000000000000000000000000000000008152506040518060400160405280600381526020017f4f4e530000000000000000000000000000000000000000000000000000000000815250816000908051906020019062000130929190620002c8565b50806001908051906020019062000149929190620002c8565b50505033600760006101000a81548173ffffffffffffffffffffffffffffffffffffffff021916908373ffffffffffffffffffffffffffffffffffffffff1602179055508060099080519060200190620001a5929190620002c8565b50620001f26040518060400160405280601881526020017f2573206e616d652073657276696365206465706c6f796564000000000000000081525082620001f960201b62001abc1760201c565b5062000663565b6200029b828260405160240162000212929190620005c3565b6040516020818303038152906040527f4b5c4277000000000000000000000000000000000000000000000000000000007bffffffffffffffffffffffffffffffffffffffffffffffffffffffff19166020820180517bffffffffffffffffffffffffffffffffffffffffffffffffffffffff83818316178352505050506200029f60201b60201c565b5050565b60008151905060006a636f6e736f6c652e6c6f679050602083016000808483855afa5050505050565b828054620002d6906200062d565b90600052602060002090601f016020900481019282620002fa576000855562000346565b82601f106200031557805160ff191683800117855562000346565b8280016001018555821562000346579182015b828111156200034557825182559160200191906001019062000328565b5b50905062000355919062000359565b5090565b5b80821115620003745760008160009055506001016200035a565b5090565b6000604051905090565b600080fd5b600080fd5b600080fd5b600080fd5b6000601f19601f8301169050919050565b7f4e487b7100000000000000000000000000000000000000000000000000000000600052604160045260246000fd5b620003e18262000396565b810181811067ffffffffffffffff82111715620004035762000402620003a7565b5b80604052505050565b60006200041862000378565b9050620004268282620003d6565b919050565b600067ffffffffffffffff821115620004495762000448620003a7565b5b620004548262000396565b9050602081019050919050565b60005b838110156200048157808201518184015260208101905062000464565b8381111562000491576000848401525b50505050565b6000620004ae620004a8846200042b565b6200040c565b905082815260208101848484011115620004cd57620004cc62000391565b5b620004da84828562000461565b509392505050565b600082601f830112620004fa57620004f96200038c565b5b81516200050c84826020860162000497565b91505092915050565b6000602082840312156200052e576200052d62000382565b5b600082015167ffffffffffffffff8111156200054f576200054e62000387565b5b6200055d84828501620004e2565b91505092915050565b600081519050919050565b600082825260208201905092915050565b60006200058f8262000566565b6200059b818562000571565b9350620005ad81856020860162000461565b620005b88162000396565b840191505092915050565b60006040820190508181036000830152620005df818562000582565b90508181036020830152620005f5818462000582565b90509392505050565b7f4e487b7100000000000000000000000000000000000000000000000000000000600052602260045260246000fd5b600060028204905060018216806200064657607f821691505b602082108114156200065d576200065c620005fe565b5b50919050565b614ba080620006736000396000f3fe60806040526004361061019c5760003560e01c80636352211e116100ec578063b88d4fde1161008a578063c87b56dd11610064578063c87b56dd14610612578063e985e9c51461064f578063f2c298be1461068c578063fe2c6198146106a85761019c565b8063b88d4fde14610583578063bf40fac1146105ac578063c1880a98146105e95761019c565b80638f32d59b116100c65780638f32d59b146104c757806395d89b41146104f25780639791c0971461051d578063a22cb4651461055a5761019c565b80636352211e1461042257806370a082311461045f5780638da5cb5b1461049c5761019c565b806323b872dd116101595780633ccfd60b116101335780633ccfd60b1461036857806342842e0e1461037f5780634622ab03146103a8578063541e771d146103e55761019c565b806323b872dd146102d757806326449235146103005780632d5514321461033d5761019c565b806301ffc9a7146101a157806306fdde03146101de578063081812fc14610209578063095ea7b31461024657806311dd88451461026f57806317d7de7c146102ac575b600080fd5b3480156101ad57600080fd5b506101c860048036038101906101c39190612f05565b6106e5565b6040516101d59190612f4d565b60405180910390f35b3480156101ea57600080fd5b506101f36107c7565b6040516102009190613001565b60405180910390f35b34801561021557600080fd5b50610230600480360381019061022b9190613059565b610859565b60405161023d91906130c7565b60405180910390f35b34801561025257600080fd5b5061026d6004803603810190610268919061310e565b6108de565b005b34801561027b57600080fd5b50610296600480360381019061029191906131b3565b6109f6565b6040516102a39190613001565b60405180910390f35b3480156102b857600080fd5b506102c1610aa9565b6040516102ce919061330c565b60405180910390f35b3480156102e357600080fd5b506102fe60048036038101906102f9919061332e565b610c49565b005b34801561030c57600080fd5b50610327600480360381019061032291906134b1565b610ca9565b60405161033491906130c7565b60405180910390f35b34801561034957600080fd5b50610352610cf2565b60405161035f9190613001565b60405180910390f35b34801561037457600080fd5b5061037d610d80565b005b34801561038b57600080fd5b506103a660048036038101906103a1919061332e565b610e46565b005b3480156103b457600080fd5b506103cf60048036038101906103ca9190613059565b610e66565b6040516103dc9190613001565b60405180910390f35b3480156103f157600080fd5b5061040c600480360381019061040791906134b1565b610f06565b6040516104199190613001565b60405180910390f35b34801561042e57600080fd5b5061044960048036038101906104449190613059565b610fbc565b60405161045691906130c7565b60405180910390f35b34801561046b57600080fd5b50610486600480360381019061048191906134fa565b61106e565b6040516104939190613536565b60405180910390f35b3480156104a857600080fd5b506104b1611126565b6040516104be9190613572565b60405180910390f35b3480156104d357600080fd5b506104dc61114c565b6040516104e99190612f4d565b60405180910390f35b3480156104fe57600080fd5b506105076111a4565b6040516105149190613001565b60405180910390f35b34801561052957600080fd5b50610544600480360381019061053f91906131b3565b611236565b6040516105519190612f4d565b60405180910390f35b34801561056657600080fd5b50610581600480360381019061057c91906135b9565b6112ea565b005b34801561058f57600080fd5b506105aa60048036038101906105a5919061369a565b611300565b005b3480156105b857600080fd5b506105d360048036038101906105ce91906131b3565b611362565b6040516105e091906130c7565b60405180910390f35b3480156105f557600080fd5b50610610600480360381019061060b919061371d565b6113ad565b005b34801561061e57600080fd5b5061063960048036038101906106349190613059565b611488565b6040516106469190613001565b60405180910390f35b34801561065b57600080fd5b506106766004803603810190610671919061379e565b6115da565b6040516106839190612f4d565b60405180910390f35b6106a660048036038101906106a191906131b3565b61166e565b005b3480156106b457600080fd5b506106cf60048036038101906106ca91906131b3565b6119e0565b6040516106dc9190613536565b60405180910390f35b60007f80ac58cd000000000000000000000000000000000000000000000000000000007bffffffffffffffffffffffffffffffffffffffffffffffffffffffff1916827bffffffffffffffffffffffffffffffffffffffffffffffffffffffff191614806107b057507f5b5e139f000000000000000000000000000000000000000000000000000000007bffffffffffffffffffffffffffffffffffffffffffffffffffffffff1916827bffffffffffffffffffffffffffffffffffffffffffffffffffffffff1916145b806107c057506107bf82611b58565b5b9050919050565b6060600080546107d69061380d565b80601f01602080910402602001604051908101604052809291908181526020018280546108029061380d565b801561084f5780601f106108245761010080835404028352916020019161084f565b820191906000526020600020905b81548152906001019060200180831161083257829003601f168201915b5050505050905090565b600061086482611bc2565b6108a3576040517f08c379a000000000000000000000000000000000000000000000000000000000815260040161089a906138b1565b60405180910390fd5b6004600083815260200190815260200160002060009054906101000a900473ffffffffffffffffffffffffffffffffffffffff169050919050565b60006108e982610fbc565b90508073ffffffffffffffffffffffffffffffffffffffff168373ffffffffffffffffffffffffffffffffffffffff16141561095a576040517f08c379a000000000000000000000000000000000000000000000000000000000815260040161095190613943565b60405180910390fd5b8073ffffffffffffffffffffffffffffffffffffffff16610979611c2e565b73ffffffffffffffffffffffffffffffffffffffff1614806109a857506109a7816109a2611c2e565b6115da565b5b6109e7576040517f08c379a00000000000000000000000000000000000000000000000000000000081526004016109de906139d5565b60405180910390fd5b6109f18383611c36565b505050565b6060600d8383604051610a0a929190613a25565b90815260200160405180910390208054610a239061380d565b80601f0160208091040260200160405190810160405280929190818152602001828054610a4f9061380d565b8015610a9c5780601f10610a7157610100808354040283529160200191610a9c565b820191906000526020600020905b815481529060010190602001808311610a7f57829003601f168201915b5050505050905092915050565b60606000610ab76008611cef565b67ffffffffffffffff811115610ad057610acf613386565b5b604051908082528060200260200182016040528015610b0357816020015b6060815260200190600190039081610aee5790505b50905060005b610b136008611cef565b811015610c4157600e60008281526020019081526020016000208054610b389061380d565b80601f0160208091040260200160405190810160405280929190818152602001828054610b649061380d565b8015610bb15780601f10610b8657610100808354040283529160200191610bb1565b820191906000526020600020905b815481529060010190602001808311610b9457829003601f168201915b5050505050828281518110610bc957610bc8613a3e565b5b6020026020010181905250610c2e6040518060400160405280601781526020017f4e616d6520666f7220746f6b656e20256420697320257300000000000000000081525082848481518110610c2157610c20613a3e565b5b6020026020010151611cfd565b8080610c3990613a9c565b915050610b09565b508091505090565b610c5a610c54611c2e565b82611d9c565b610c99576040517f08c379a0000000000000000000000000000000000000000000000000000000008152600401610c9090613b57565b60405180910390fd5b610ca4838383611e7a565b505050565b600c818051602081018201805184825260208301602085012081835280955050505050506000915054906101000a900473ffffffffffffffffffffffffffffffffffffffff1681565b60098054610cff9061380d565b80601f0160208091040260200160405190810160405280929190818152602001828054610d2b9061380d565b8015610d785780601f10610d4d57610100808354040283529160200191610d78565b820191906000526020600020905b815481529060010190602001808311610d5b57829003601f168201915b505050505081565b610d8861114c565b610d9157600080fd5b600047905060003373ffffffffffffffffffffffffffffffffffffffff1682604051610dbc90613ba8565b60006040518083038185875af1925050503d8060008114610df9576040519150601f19603f3d011682016040523d82523d6000602084013e610dfe565b606091505b5050905080610e42576040517f08c379a0000000000000000000000000000000000000000000000000000000008152600401610e3990613c09565b60405180910390fd5b5050565b610e6183838360405180602001604052806000815250611300565b505050565b600e6020528060005260406000206000915090508054610e859061380d565b80601f0160208091040260200160405190810160405280929190818152602001828054610eb19061380d565b8015610efe5780601f10610ed357610100808354040283529160200191610efe565b820191906000526020600020905b815481529060010190602001808311610ee157829003601f168201915b505050505081565b600d818051602081018201805184825260208301602085012081835280955050505050506000915090508054610f3b9061380d565b80601f0160208091040260200160405190810160405280929190818152602001828054610f679061380d565b8015610fb45780601f10610f8957610100808354040283529160200191610fb4565b820191906000526020600020905b815481529060010190602001808311610f9757829003601f168201915b505050505081565b6000806002600084815260200190815260200160002060009054906101000a900473ffffffffffffffffffffffffffffffffffffffff169050600073ffffffffffffffffffffffffffffffffffffffff168173ffffffffffffffffffffffffffffffffffffffff161415611065576040517f08c379a000000000000000000000000000000000000000000000000000000000815260040161105c90613c9b565b60405180910390fd5b80915050919050565b60008073ffffffffffffffffffffffffffffffffffffffff168273ffffffffffffffffffffffffffffffffffffffff1614156110df576040517f08c379a00000000000000000000000000000000000000000000000000000000081526004016110d690613d2d565b60405180910390fd5b600360008373ffffffffffffffffffffffffffffffffffffffff1673ffffffffffffffffffffffffffffffffffffffff168152602001908152602001600020549050919050565b600760009054906101000a900473ffffffffffffffffffffffffffffffffffffffff1681565b6000600760009054906101000a900473ffffffffffffffffffffffffffffffffffffffff1673ffffffffffffffffffffffffffffffffffffffff163373ffffffffffffffffffffffffffffffffffffffff1614905090565b6060600180546111b39061380d565b80601f01602080910402602001604051908101604052809291908181526020018280546111df9061380d565b801561122c5780601f106112015761010080835404028352916020019161122c565b820191906000526020600020905b81548152906001019060200180831161120f57829003601f168201915b5050505050905090565b6000600361128784848080601f016020809104026020016040519081016040528093929190818152602001838380828437600081840152601f19601f820116905080830192505050505050506120e1565b101580156112e25750600a6112df84848080601f016020809104026020016040519081016040528093929190818152602001838380828437600081840152601f19601f820116905080830192505050505050506120e1565b11155b905092915050565b6112fc6112f5611c2e565b8383612296565b5050565b61131161130b611c2e565b83611d9c565b611350576040517f08c379a000000000000000000000000000000000000000000000000000000000815260040161134790613b57565b60405180910390fd5b61135c84848484612403565b50505050565b6000600c8383604051611376929190613a25565b908152602001604051809103902060009054906101000a900473ffffffffffffffffffffffffffffffffffffffff16905092915050565b600c84846040516113bf929190613a25565b908152602001604051809103902060009054906101000a900473ffffffffffffffffffffffffffffffffffffffff1673ffffffffffffffffffffffffffffffffffffffff163373ffffffffffffffffffffffffffffffffffffffff1614611452576040517f82b4290000000000000000000000000000000000000000000000000000000000815260040160405180910390fd5b8181600d8686604051611466929190613a25565b90815260200160405180910390209190611481929190612d70565b5050505050565b606061149382611bc2565b6114d2576040517f08c379a00000000000000000000000000000000000000000000000000000000081526004016114c990613dbf565b60405180910390fd5b60006006600084815260200190815260200160002080546114f29061380d565b80601f016020809104026020016040519081016040528092919081815260200182805461151e9061380d565b801561156b5780601f106115405761010080835404028352916020019161156b565b820191906000526020600020905b81548152906001019060200180831161154e57829003601f168201915b50505050509050600061157c61245f565b90506000815114156115925781925050506115d5565b6000825111156115c75780826040516020016115af929190613e10565b604051602081830303815290604052925050506115d5565b6115d084612476565b925050505b919050565b6000600560008473ffffffffffffffffffffffffffffffffffffffff1673ffffffffffffffffffffffffffffffffffffffff16815260200190815260200160002060008373ffffffffffffffffffffffffffffffffffffffff1673ffffffffffffffffffffffffffffffffffffffff16815260200190815260200160002060009054906101000a900460ff16905092915050565b600073ffffffffffffffffffffffffffffffffffffffff16600c8383604051611698929190613a25565b908152602001604051809103902060009054906101000a900473ffffffffffffffffffffffffffffffffffffffff1673ffffffffffffffffffffffffffffffffffffffff1614611714576040517f3a81d6fc00000000000000000000000000000000000000000000000000000000815260040160405180910390fd5b61171e8282611236565b6117615781816040517f7f19f48d000000000000000000000000000000000000000000000000000000008152600401611758929190613e61565b60405180910390fd5b600061176d83836119e0565b9050803410156117b2576040517f08c379a00000000000000000000000000000000000000000000000000000000081526004016117a990613ef7565b60405180910390fd5b6000838360096040516020016117ca93929190613ff7565b60405160208183030381529060405290506000600a82600b6040516020016117f493929190614028565b604051602081830303815290604052905060006118116008611cef565b9050600061186287878080601f016020809104026020016040519081016040528093929190818152602001838380828437600081840152601f19601f820116905080830192505050505050506120e1565b9050600061186f8261251d565b90506118d86040518060600160405280602f8152602001614b3c602f913989898080601f016020809104026020016040519081016040528093929190818152602001838380828437600081840152601f19601f820116905080830192505050505050508561267e565b600061190e866118e78761271d565b846040516020016118fa939291906141d5565b60405160208183030381529060405261271d565b9050600081604051602001611923919061427e565b604051602081830303815290604052905061193e33866128b5565b61194885826128d3565b33600c8b8b60405161195b929190613a25565b908152602001604051809103902060006101000a81548173ffffffffffffffffffffffffffffffffffffffff021916908373ffffffffffffffffffffffffffffffffffffffff1602179055508989600e600088815260200190815260200160002091906119c9929190612d70565b506119d46008612947565b50505050505050505050565b600080611a3084848080601f016020809104026020016040519081016040528093929190818152602001838380828437600081840152601f19601f820116905080830192505050505050506120e1565b905060038111611a75576040517f08c379a0000000000000000000000000000000000000000000000000000000008152600401611a6c90614312565b60405180910390fd5b6003811415611a8f576706f05b59d3b20000915050611ab6565b6004811415611aa957670429d069189e0000915050611ab6565b67016345785d8a00009150505b92915050565b611b548282604051602401611ad2929190614332565b6040516020818303038152906040527f4b5c4277000000000000000000000000000000000000000000000000000000007bffffffffffffffffffffffffffffffffffffffffffffffffffffffff19166020820180517bffffffffffffffffffffffffffffffffffffffffffffffffffffffff838183161783525050505061295d565b5050565b60007f01ffc9a7000000000000000000000000000000000000000000000000000000007bffffffffffffffffffffffffffffffffffffffffffffffffffffffff1916827bffffffffffffffffffffffffffffffffffffffffffffffffffffffff1916149050919050565b60008073ffffffffffffffffffffffffffffffffffffffff166002600084815260200190815260200160002060009054906101000a900473ffffffffffffffffffffffffffffffffffffffff1673ffffffffffffffffffffffffffffffffffffffff1614159050919050565b600033905090565b816004600083815260200190815260200160002060006101000a81548173ffffffffffffffffffffffffffffffffffffffff021916908373ffffffffffffffffffffffffffffffffffffffff160217905550808273ffffffffffffffffffffffffffffffffffffffff16611ca983610fbc565b73ffffffffffffffffffffffffffffffffffffffff167f8c5be1e5ebec7d5bd14f71427d1e84f3dd0314c0f7b2291e5b200ac8c7c3b92560405160405180910390a45050565b600081600001549050919050565b611d97838383604051602401611d1593929190614369565b6040516020818303038152906040527fa3f5c739000000000000000000000000000000000000000000000000000000007bffffffffffffffffffffffffffffffffffffffffffffffffffffffff19166020820180517bffffffffffffffffffffffffffffffffffffffffffffffffffffffff838183161783525050505061295d565b505050565b6000611da782611bc2565b611de6576040517f08c379a0000000000000000000000000000000000000000000000000000000008152600401611ddd90614420565b60405180910390fd5b6000611df183610fbc565b90508073ffffffffffffffffffffffffffffffffffffffff168473ffffffffffffffffffffffffffffffffffffffff161480611e335750611e3281856115da565b5b80611e7157508373ffffffffffffffffffffffffffffffffffffffff16611e5984610859565b73ffffffffffffffffffffffffffffffffffffffff16145b91505092915050565b8273ffffffffffffffffffffffffffffffffffffffff16611e9a82610fbc565b73ffffffffffffffffffffffffffffffffffffffff1614611ef0576040517f08c379a0000000000000000000000000000000000000000000000000000000008152600401611ee7906144b2565b60405180910390fd5b600073ffffffffffffffffffffffffffffffffffffffff168273ffffffffffffffffffffffffffffffffffffffff161415611f60576040517f08c379a0000000000000000000000000000000000000000000000000000000008152600401611f5790614544565b60405180910390fd5b611f6b838383612986565b611f76600082611c36565b6001600360008573ffffffffffffffffffffffffffffffffffffffff1673ffffffffffffffffffffffffffffffffffffffff1681526020019081526020016000206000828254611fc69190614564565b925050819055506001600360008473ffffffffffffffffffffffffffffffffffffffff1673ffffffffffffffffffffffffffffffffffffffff168152602001908152602001600020600082825461201d9190614598565b92505081905550816002600083815260200190815260200160002060006101000a81548173ffffffffffffffffffffffffffffffffffffffff021916908373ffffffffffffffffffffffffffffffffffffffff160217905550808273ffffffffffffffffffffffffffffffffffffffff168473ffffffffffffffffffffffffffffffffffffffff167fddf252ad1be2c89b69c2b068fc378daa952ba7f163c4a11628f55a4df523b3ef60405160405180910390a46120dc83838361298b565b505050565b60008060008084519050600092505b8082101561228b57600085838151811061210d5761210c613a3e565b5b602001015160f81c60f81b9050608060f81b817effffffffffffffffffffffffffffffffffffffffffffffffffffffffffffff1916101561215c576001836121559190614598565b9250612277565b60e060f81b817effffffffffffffffffffffffffffffffffffffffffffffffffffffffffffff1916101561219e576002836121979190614598565b9250612276565b60f060f81b817effffffffffffffffffffffffffffffffffffffffffffffffffffffffffffff191610156121e0576003836121d99190614598565b9250612275565b60f8801b817effffffffffffffffffffffffffffffffffffffffffffffffffffffffffffff191610156122215760048361221a9190614598565b9250612274565b60fc60f81b817effffffffffffffffffffffffffffffffffffffffffffffffffffffffffffff191610156122635760058361225c9190614598565b9250612273565b6006836122709190614598565b92505b5b5b5b5b50828061228390613a9c565b9350506120f0565b829350505050919050565b8173ffffffffffffffffffffffffffffffffffffffff168373ffffffffffffffffffffffffffffffffffffffff161415612305576040517f08c379a00000000000000000000000000000000000000000000000000000000081526004016122fc9061463a565b60405180910390fd5b80600560008573ffffffffffffffffffffffffffffffffffffffff1673ffffffffffffffffffffffffffffffffffffffff16815260200190815260200160002060008473ffffffffffffffffffffffffffffffffffffffff1673ffffffffffffffffffffffffffffffffffffffff16815260200190815260200160002060006101000a81548160ff0219169083151502179055508173ffffffffffffffffffffffffffffffffffffffff168373ffffffffffffffffffffffffffffffffffffffff167f17307eab39ab6107e8899845ad3d59bd9653f200f220920489ca2b5937696c31836040516123f69190612f4d565b60405180910390a3505050565b61240e848484611e7a565b61241a84848484612990565b612459576040517f08c379a0000000000000000000000000000000000000000000000000000000008152600401612450906146cc565b60405180910390fd5b50505050565b606060405180602001604052806000815250905090565b606061248182611bc2565b6124c0576040517f08c379a00000000000000000000000000000000000000000000000000000000081526004016124b79061475e565b60405180910390fd5b60006124ca61245f565b905060008151116124ea5760405180602001604052806000815250612515565b806124f48461251d565b604051602001612505929190613e10565b6040516020818303038152906040525b915050919050565b60606000821415612565576040518060400160405280600181526020017f30000000000000000000000000000000000000000000000000000000000000008152509050612679565b600082905060005b6000821461259757808061258090613a9c565b915050600a8261259091906147ad565b915061256d565b60008167ffffffffffffffff8111156125b3576125b2613386565b5b6040519080825280601f01601f1916602001820160405280156125e55781602001600182028036833780820191505090505b5090505b60008514612672576001826125fe9190614564565b9150600a8561260d91906147de565b60306126199190614598565b60f81b81838151811061262f5761262e613a3e565b5b60200101907effffffffffffffffffffffffffffffffffffffffffffffffffffffffffffff1916908160001a905350600a8561266b91906147ad565b94506125e9565b8093505050505b919050565b6127188383836040516024016126969392919061480f565b6040516020818303038152906040527ff362ca59000000000000000000000000000000000000000000000000000000007bffffffffffffffffffffffffffffffffffffffffffffffffffffffff19166020820180517bffffffffffffffffffffffffffffffffffffffffffffffffffffffff838183161783525050505061295d565b505050565b6060600082519050600081141561274657604051806020016040528060008152509150506128b0565b600060036002836127579190614598565b61276191906147ad565b600461276d9190614854565b9050600060208261277e9190614598565b67ffffffffffffffff81111561279757612796613386565b5b6040519080825280601f01601f1916602001820160405280156127c95781602001600182028036833780820191505090505b5090506000604051806060016040528060408152602001614afc604091399050600181016020830160005b8681101561286d5760038101905062ffffff818a015116603f8160121c168401518060081b905060ff603f83600c1c1686015116810190508060081b905060ff603f8360061c1686015116810190508060081b905060ff603f831686015116810190508060e01b905080845260048401935050506127f4565b5060038606600181146128875760028114612897576128a2565b613d3d60f01b60028303526128a2565b603d60f81b60018303525b508484525050819450505050505b919050565b6128cf828260405180602001604052806000815250612b18565b5050565b6128dc82611bc2565b61291b576040517f08c379a000000000000000000000000000000000000000000000000000000000815260040161291290614920565b60405180910390fd5b80600660008481526020019081526020016000209080519060200190612942929190612df6565b505050565b6001816000016000828254019250508190555050565b60008151905060006a636f6e736f6c652e6c6f679050602083016000808483855afa5050505050565b505050565b505050565b60006129b18473ffffffffffffffffffffffffffffffffffffffff16612b73565b15612b0b578373ffffffffffffffffffffffffffffffffffffffff1663150b7a026129da611c2e565b8786866040518563ffffffff1660e01b81526004016129fc9493929190614995565b6020604051808303816000875af1925050508015612a3857506040513d601f19601f82011682018060405250810190612a3591906149f6565b60015b612abb573d8060008114612a68576040519150601f19603f3d011682016040523d82523d6000602084013e612a6d565b606091505b50600081511415612ab3576040517f08c379a0000000000000000000000000000000000000000000000000000000008152600401612aaa906146cc565b60405180910390fd5b805181602001fd5b63150b7a0260e01b7bffffffffffffffffffffffffffffffffffffffffffffffffffffffff1916817bffffffffffffffffffffffffffffffffffffffffffffffffffffffff191614915050612b10565b600190505b949350505050565b612b228383612b96565b612b2f6000848484612990565b612b6e576040517f08c379a0000000000000000000000000000000000000000000000000000000008152600401612b65906146cc565b60405180910390fd5b505050565b6000808273ffffffffffffffffffffffffffffffffffffffff163b119050919050565b600073ffffffffffffffffffffffffffffffffffffffff168273ffffffffffffffffffffffffffffffffffffffff161415612c06576040517f08c379a0000000000000000000000000000000000000000000000000000000008152600401612bfd90614a6f565b60405180910390fd5b612c0f81611bc2565b15612c4f576040517f08c379a0000000000000000000000000000000000000000000000000000000008152600401612c4690614adb565b60405180910390fd5b612c5b60008383612986565b6001600360008473ffffffffffffffffffffffffffffffffffffffff1673ffffffffffffffffffffffffffffffffffffffff1681526020019081526020016000206000828254612cab9190614598565b92505081905550816002600083815260200190815260200160002060006101000a81548173ffffffffffffffffffffffffffffffffffffffff021916908373ffffffffffffffffffffffffffffffffffffffff160217905550808273ffffffffffffffffffffffffffffffffffffffff16600073ffffffffffffffffffffffffffffffffffffffff167fddf252ad1be2c89b69c2b068fc378daa952ba7f163c4a11628f55a4df523b3ef60405160405180910390a4612d6c6000838361298b565b5050565b828054612d7c9061380d565b90600052602060002090601f016020900481019282612d9e5760008555612de5565b82601f10612db757803560ff1916838001178555612de5565b82800160010185558215612de5579182015b82811115612de4578235825591602001919060010190612dc9565b5b509050612df29190612e7c565b5090565b828054612e029061380d565b90600052602060002090601f016020900481019282612e245760008555612e6b565b82601f10612e3d57805160ff1916838001178555612e6b565b82800160010185558215612e6b579182015b82811115612e6a578251825591602001919060010190612e4f565b5b509050612e789190612e7c565b5090565b5b80821115612e95576000816000905550600101612e7d565b5090565b6000604051905090565b600080fd5b600080fd5b60007fffffffff0000000000000000000000000000000000000000000000000000000082169050919050565b612ee281612ead565b8114612eed57600080fd5b50565b600081359050612eff81612ed9565b92915050565b600060208284031215612f1b57612f1a612ea3565b5b6000612f2984828501612ef0565b91505092915050565b60008115159050919050565b612f4781612f32565b82525050565b6000602082019050612f626000830184612f3e565b92915050565b600081519050919050565b600082825260208201905092915050565b60005b83811015612fa2578082015181840152602081019050612f87565b83811115612fb1576000848401525b50505050565b6000601f19601f8301169050919050565b6000612fd382612f68565b612fdd8185612f73565b9350612fed818560208601612f84565b612ff681612fb7565b840191505092915050565b6000602082019050818103600083015261301b8184612fc8565b905092915050565b6000819050919050565b61303681613023565b811461304157600080fd5b50565b6000813590506130538161302d565b92915050565b60006020828403121561306f5761306e612ea3565b5b600061307d84828501613044565b91505092915050565b600073ffffffffffffffffffffffffffffffffffffffff82169050919050565b60006130b182613086565b9050919050565b6130c1816130a6565b82525050565b60006020820190506130dc60008301846130b8565b92915050565b6130eb816130a6565b81146130f657600080fd5b50565b600081359050613108816130e2565b92915050565b6000806040838503121561312557613124612ea3565b5b6000613133858286016130f9565b925050602061314485828601613044565b9150509250929050565b600080fd5b600080fd5b600080fd5b60008083601f8401126131735761317261314e565b5b8235905067ffffffffffffffff8111156131905761318f613153565b5b6020830191508360018202830111156131ac576131ab613158565b5b9250929050565b600080602083850312156131ca576131c9612ea3565b5b600083013567ffffffffffffffff8111156131e8576131e7612ea8565b5b6131f48582860161315d565b92509250509250929050565b600081519050919050565b600082825260208201905092915050565b6000819050602082019050919050565b600082825260208201905092915050565b600061324882612f68565b613252818561322c565b9350613262818560208601612f84565b61326b81612fb7565b840191505092915050565b6000613282838361323d565b905092915050565b6000602082019050919050565b60006132a282613200565b6132ac818561320b565b9350836020820285016132be8561321c565b8060005b858110156132fa57848403895281516132db8582613276565b94506132e68361328a565b925060208a019950506001810190506132c2565b50829750879550505050505092915050565b600060208201905081810360008301526133268184613297565b905092915050565b60008060006060848603121561334757613346612ea3565b5b6000613355868287016130f9565b9350506020613366868287016130f9565b925050604061337786828701613044565b9150509250925092565b600080fd5b7f4e487b7100000000000000000000000000000000000000000000000000000000600052604160045260246000fd5b6133be82612fb7565b810181811067ffffffffffffffff821117156133dd576133dc613386565b5b80604052505050565b60006133f0612e99565b90506133fc82826133b5565b919050565b600067ffffffffffffffff82111561341c5761341b613386565b5b61342582612fb7565b9050602081019050919050565b82818337600083830152505050565b600061345461344f84613401565b6133e6565b9050828152602081018484840111156134705761346f613381565b5b61347b848285613432565b509392505050565b600082601f8301126134985761349761314e565b5b81356134a8848260208601613441565b91505092915050565b6000602082840312156134c7576134c6612ea3565b5b600082013567ffffffffffffffff8111156134e5576134e4612ea8565b5b6134f184828501613483565b91505092915050565b6000602082840312156135105761350f612ea3565b5b600061351e848285016130f9565b91505092915050565b61353081613023565b82525050565b600060208201905061354b6000830184613527565b92915050565b600061355c82613086565b9050919050565b61356c81613551565b82525050565b60006020820190506135876000830184613563565b92915050565b61359681612f32565b81146135a157600080fd5b50565b6000813590506135b38161358d565b92915050565b600080604083850312156135d0576135cf612ea3565b5b60006135de858286016130f9565b92505060206135ef858286016135a4565b9150509250929050565b600067ffffffffffffffff82111561361457613613613386565b5b61361d82612fb7565b9050602081019050919050565b600061363d613638846135f9565b6133e6565b90508281526020810184848401111561365957613658613381565b5b613664848285613432565b509392505050565b600082601f8301126136815761368061314e565b5b813561369184826020860161362a565b91505092915050565b600080600080608085870312156136b4576136b3612ea3565b5b60006136c2878288016130f9565b94505060206136d3878288016130f9565b93505060406136e487828801613044565b925050606085013567ffffffffffffffff81111561370557613704612ea8565b5b6137118782880161366c565b91505092959194509250565b6000806000806040858703121561373757613736612ea3565b5b600085013567ffffffffffffffff81111561375557613754612ea8565b5b6137618782880161315d565b9450945050602085013567ffffffffffffffff81111561378457613783612ea8565b5b6137908782880161315d565b925092505092959194509250565b600080604083850312156137b5576137b4612ea3565b5b60006137c3858286016130f9565b92505060206137d4858286016130f9565b9150509250929050565b7f4e487b7100000000000000000000000000000000000000000000000000000000600052602260045260246000fd5b6000600282049050600182168061382557607f821691505b60208210811415613839576138386137de565b5b50919050565b7f4552433732313a20617070726f76656420717565727920666f72206e6f6e657860008201527f697374656e7420746f6b656e0000000000000000000000000000000000000000602082015250565b600061389b602c83612f73565b91506138a68261383f565b604082019050919050565b600060208201905081810360008301526138ca8161388e565b9050919050565b7f4552433732313a20617070726f76616c20746f2063757272656e74206f776e6560008201527f7200000000000000000000000000000000000000000000000000000000000000602082015250565b600061392d602183612f73565b9150613938826138d1565b604082019050919050565b6000602082019050818103600083015261395c81613920565b9050919050565b7f4552433732313a20617070726f76652063616c6c6572206973206e6f74206f7760008201527f6e6572206e6f7220617070726f76656420666f7220616c6c0000000000000000602082015250565b60006139bf603883612f73565b91506139ca82613963565b604082019050919050565b600060208201905081810360008301526139ee816139b2565b9050919050565b600081905092915050565b6000613a0c83856139f5565b9350613a19838584613432565b82840190509392505050565b6000613a32828486613a00565b91508190509392505050565b7f4e487b7100000000000000000000000000000000000000000000000000000000600052603260045260246000fd5b7f4e487b7100000000000000000000000000000000000000000000000000000000600052601160045260246000fd5b6000613aa782613023565b91507fffffffffffffffffffffffffffffffffffffffffffffffffffffffffffffffff821415613ada57613ad9613a6d565b5b600182019050919050565b7f4552433732313a207472616e736665722063616c6c6572206973206e6f74206f60008201527f776e6572206e6f7220617070726f766564000000000000000000000000000000602082015250565b6000613b41603183612f73565b9150613b4c82613ae5565b604082019050919050565b60006020820190508181036000830152613b7081613b34565b9050919050565b600081905092915050565b50565b6000613b92600083613b77565b9150613b9d82613b82565b600082019050919050565b6000613bb382613b85565b9150819050919050565b7f4661696c656420746f207769746864726177204d617469630000000000000000600082015250565b6000613bf3601883612f73565b9150613bfe82613bbd565b602082019050919050565b60006020820190508181036000830152613c2281613be6565b9050919050565b7f4552433732313a206f776e657220717565727920666f72206e6f6e657869737460008201527f656e7420746f6b656e0000000000000000000000000000000000000000000000602082015250565b6000613c85602983612f73565b9150613c9082613c29565b604082019050919050565b60006020820190508181036000830152613cb481613c78565b9050919050565b7f4552433732313a2062616c616e636520717565727920666f7220746865207a6560008201527f726f206164647265737300000000000000000000000000000000000000000000602082015250565b6000613d17602a83612f73565b9150613d2282613cbb565b604082019050919050565b60006020820190508181036000830152613d4681613d0a565b9050919050565b7f45524337323155524953746f726167653a2055524920717565727920666f722060008201527f6e6f6e6578697374656e7420746f6b656e000000000000000000000000000000602082015250565b6000613da9603183612f73565b9150613db482613d4d565b604082019050919050565b60006020820190508181036000830152613dd881613d9c565b9050919050565b6000613dea82612f68565b613df481856139f5565b9350613e04818560208601612f84565b80840191505092915050565b6000613e1c8285613ddf565b9150613e288284613ddf565b91508190509392505050565b6000613e408385612f73565b9350613e4d838584613432565b613e5683612fb7565b840190509392505050565b60006020820190508181036000830152613e7c818486613e34565b90509392505050565b7f596f7520646f6e74206861766520656e6f756768204d6174696320746f20627560008201527f79207468697320646f6d61696e00000000000000000000000000000000000000602082015250565b6000613ee1602d83612f73565b9150613eec82613e85565b604082019050919050565b60006020820190508181036000830152613f1081613ed4565b9050919050565b7f2e00000000000000000000000000000000000000000000000000000000000000600082015250565b6000613f4d6001836139f5565b9150613f5882613f17565b600182019050919050565b60008190508160005260206000209050919050565b60008154613f858161380d565b613f8f81866139f5565b94506001821660008114613faa5760018114613fbb57613fee565b60ff19831686528186019350613fee565b613fc485613f63565b60005b83811015613fe657815481890152600182019150602081019050613fc7565b838801955050505b50505092915050565b6000614004828587613a00565b915061400f82613f40565b915061401b8284613f78565b9150819050949350505050565b60006140348286613f78565b91506140408285613ddf565b915061404c8284613f78565b9150819050949350505050565b7f7b20226e616d65223a2200000000000000000000000000000000000000000000600082015250565b600061408f600a836139f5565b915061409a82614059565b600a82019050919050565b7f222c226465736372697074696f6e223a20224120446f6d61696e206e616d652060008201527f6f6e204f776c204e616d652053657276696365222c22696d616765223a22646160208201527f74613a696d6167652f7376672b786d6c3b6261736536342c0000000000000000604082015250565b60006141276058836139f5565b9150614132826140a5565b605882019050919050565b7f222c226c656e67746822203a2022000000000000000000000000000000000000600082015250565b6000614173600e836139f5565b915061417e8261413d565b600e82019050919050565b7f227d000000000000000000000000000000000000000000000000000000000000600082015250565b60006141bf6002836139f5565b91506141ca82614189565b600282019050919050565b60006141e082614082565b91506141ec8286613ddf565b91506141f78261411a565b91506142038285613ddf565b915061420e82614166565b915061421a8284613ddf565b9150614225826141b2565b9150819050949350505050565b7f646174613a6170706c69636174696f6e2f6a736f6e3b6261736536342c000000600082015250565b6000614268601d836139f5565b915061427382614232565b601d82019050919050565b60006142898261425b565b91506142958284613ddf565b915081905092915050565b7f446f6d61696e206e616d6520697320696e76616c69642c20706c65617365207560008201527f73652061746c6561737420332063686172616374657273000000000000000000602082015250565b60006142fc603783612f73565b9150614307826142a0565b604082019050919050565b6000602082019050818103600083015261432b816142ef565b9050919050565b6000604082019050818103600083015261434c8185612fc8565b905081810360208301526143608184612fc8565b90509392505050565b600060608201905081810360008301526143838186612fc8565b90506143926020830185613527565b81810360408301526143a48184612fc8565b9050949350505050565b7f4552433732313a206f70657261746f7220717565727920666f72206e6f6e657860008201527f697374656e7420746f6b656e0000000000000000000000000000000000000000602082015250565b600061440a602c83612f73565b9150614415826143ae565b604082019050919050565b60006020820190508181036000830152614439816143fd565b9050919050565b7f4552433732313a207472616e736665722066726f6d20696e636f72726563742060008201527f6f776e6572000000000000000000000000000000000000000000000000000000602082015250565b600061449c602583612f73565b91506144a782614440565b604082019050919050565b600060208201905081810360008301526144cb8161448f565b9050919050565b7f4552433732313a207472616e7366657220746f20746865207a65726f2061646460008201527f7265737300000000000000000000000000000000000000000000000000000000602082015250565b600061452e602483612f73565b9150614539826144d2565b604082019050919050565b6000602082019050818103600083015261455d81614521565b9050919050565b600061456f82613023565b915061457a83613023565b92508282101561458d5761458c613a6d565b5b828203905092915050565b60006145a382613023565b91506145ae83613023565b9250827fffffffffffffffffffffffffffffffffffffffffffffffffffffffffffffffff038211156145e3576145e2613a6d565b5b828201905092915050565b7f4552433732313a20617070726f766520746f2063616c6c657200000000000000600082015250565b6000614624601983612f73565b915061462f826145ee565b602082019050919050565b6000602082019050818103600083015261465381614617565b9050919050565b7f4552433732313a207472616e7366657220746f206e6f6e20455243373231526560008201527f63656976657220696d706c656d656e7465720000000000000000000000000000602082015250565b60006146b6603283612f73565b91506146c18261465a565b604082019050919050565b600060208201905081810360008301526146e5816146a9565b9050919050565b7f4552433732314d657461646174613a2055524920717565727920666f72206e6f60008201527f6e6578697374656e7420746f6b656e0000000000000000000000000000000000602082015250565b6000614748602f83612f73565b9150614753826146ec565b604082019050919050565b600060208201905081810360008301526147778161473b565b9050919050565b7f4e487b7100000000000000000000000000000000000000000000000000000000600052601260045260246000fd5b60006147b882613023565b91506147c383613023565b9250826147d3576147d261477e565b5b828204905092915050565b60006147e982613023565b91506147f483613023565b9250826148045761480361477e565b5b828206905092915050565b600060608201905081810360008301526148298186612fc8565b9050818103602083015261483d8185612fc8565b905061484c6040830184613527565b949350505050565b600061485f82613023565b915061486a83613023565b9250817fffffffffffffffffffffffffffffffffffffffffffffffffffffffffffffffff04831182151516156148a3576148a2613a6d565b5b828202905092915050565b7f45524337323155524953746f726167653a2055524920736574206f66206e6f6e60008201527f6578697374656e7420746f6b656e000000000000000000000000000000000000602082015250565b600061490a602e83612f73565b9150614915826148ae565b604082019050919050565b60006020820190508181036000830152614939816148fd565b9050919050565b600081519050919050565b600082825260208201905092915050565b600061496782614940565b614971818561494b565b9350614981818560208601612f84565b61498a81612fb7565b840191505092915050565b60006080820190506149aa60008301876130b8565b6149b760208301866130b8565b6149c46040830185613527565b81810360608301526149d6818461495c565b905095945050505050565b6000815190506149f081612ed9565b92915050565b600060208284031215614a0c57614a0b612ea3565b5b6000614a1a848285016149e1565b91505092915050565b7f4552433732313a206d696e7420746f20746865207a65726f2061646472657373600082015250565b6000614a59602083612f73565b9150614a6482614a23565b602082019050919050565b60006020820190508181036000830152614a8881614a4c565b9050919050565b7f4552433732313a20746f6b656e20616c7265616479206d696e74656400000000600082015250565b6000614ac5601c83612f73565b9150614ad082614a8f565b602082019050919050565b60006020820190508181036000830152614af481614ab8565b905091905056fe4142434445464748494a4b4c4d4e4f505152535455565758595a6162636465666768696a6b6c6d6e6f707172737475767778797a303132333435363738392b2f5265676973746572696e67202573206f6e2074686520436f6e7472616374207769746820746f6b656e206964202573a26469706673582212207f4fb968e216203d90c30d5b1084a0f249c53c227118d2cb59d4276d7060426264736f6c634300080a00333c73766720786d6c6e733d22687474703a2f2f7777772e77332e6f72672f323030302f737667222077696474683d2233353022206865696768743d22333530222066696c6c3d226e6f6e65223e3c706174682066696c6c3d2275726c282361292220643d224d302030683335307633353048307a222f3e3c646566733e3c66696c7465722069643d22622220636f6c6f722d696e746572706f6c6174696f6e2d66696c746572733d2273524742222066696c746572556e6974733d227573657253706163654f6e55736522206865696768743d22333530222077696474683d22333530223e3c666544726f70536861646f772064783d2230222064793d22312220737464446576696174696f6e3d22322220666c6f6f642d6f7061636974793d222e323235222077696474683d223230302522206865696768743d2232303025222f3e3c2f66696c7465723e3c2f646566733e3c7061746820643d224d37322e3836332034322e39343961342e33383220342e3338322030203020302d342e33393420306c2d31302e30383120362e3033322d362e383520332e3933342d31302e30383120362e30333261342e33383220342e3338322030203020312d342e33393420306c2d382e3031332d342e37323161342e353220342e35322030203020312d312e3538392d312e36313620342e353420342e35342030203020312d2e3630382d322e313837762d392e333161342e323720342e3237203020302031202e3537322d322e32303820342e323520342e323520302030203120312e3632352d312e3539356c372e3838342d342e353961342e33383220342e33383220302030203120342e33393420306c372e38383420342e353961342e353220342e353220302030203120312e35383920312e36313620342e353420342e3534203020302031202e36303820322e31383776362e3033326c362e38352d342e303635762d362e30333261342e323720342e32372030203020302d2e3537322d322e32303820342e323520342e32352030203020302d312e3632352d312e3539354c34312e3435362032342e353961342e33383220342e3338322030203020302d342e33393420306c2d31342e38363420382e36353561342e323520342e32352030203020302d312e36323520312e35393520342e32373320342e3237332030203020302d2e35373220322e3230387631372e34343161342e323720342e3237203020302030202e35373220322e32303820342e323520342e323520302030203020312e36323520312e3539356c31342e38363420382e36353561342e33383220342e33383220302030203020342e33393420306c31302e3038312d352e39303120362e38352d342e3036352031302e3038312d352e39303161342e33383220342e33383220302030203120342e33393420306c372e38383420342e353961342e353220342e353220302030203120312e35383920312e36313620342e353420342e3534203020302031202e36303820322e31383776392e33313161342e323720342e32372030203020312d2e35373220322e32303820342e323520342e32352030203020312d312e36323520312e3539356c2d372e38383420342e37323161342e33383220342e3338322030203020312d342e33393420306c2d372e3838342d342e353961342e353220342e35322030203020312d312e3538392d312e36313620342e353320342e35332030203020312d2e3630382d322e313837762d362e3033326c2d362e383520342e30363576362e30333261342e323720342e3237203020302030202e35373220322e32303820342e323520342e323520302030203020312e36323520312e3539356c31342e38363420382e36353561342e33383220342e33383220302030203020342e33393420306c31342e3836342d382e36353561342e35343520342e35343520302030203020322e3139382d332e3830335635352e35333861342e323720342e32372030203020302d2e3537322d322e32303820342e323520342e32352030203020302d312e3632352d312e3539356c2d31342e3939332d382e3738367a222066696c6c3d2223464646222f3e3c646566733e3c6c696e6561724772616469656e742069643d2261222078313d2230222079313d2230222078323d22333530222079323d2233353022206772616469656e74556e6974733d227573657253706163654f6e557365223e3c73746f702073746f702d636f6c6f723d2223413742464538222f3e3c73746f70206f66667365743d2231222073746f702d636f6c6f723d2223346236636237222073746f702d6f7061636974793d222e3939222f3e3c2f6c696e6561724772616469656e743e3c2f646566733e3c7465787420783d2232302220793d223330302220666f6e742d73697a653d223234222066696c6c3d2223464646222066696c7465723d2275726c282362292220666f6e742d66616d696c793d22526f626f746f2c20506c7573204a616b617274612053616e732c44656a6156752053616e732c4e6f746f20436f6c6f7220456d6f6a692c73616e732d73657269662220666f6e742d7765696768743d22626f6c64223ef09fa689",
  "linkReferences": {},
  "deployedLinkReferences": {}
}