{
  "_format": "hh-sol-artifact-1",
  "contractName": "Domains",
  "sourceName": "contracts/Domains.sol",
  "abi": [
    {
      "inputs": [
        {
          "internalType": "string",
          "name": "_tld",
          "type": "string"
        }
      ],
      "stateMutability": "payable",
      "type": "constructor"
    },
    {
      "inputs": [],
      "name": "AlreadyRegistered",
      "type": "error"
    },
    {
      "inputs": [
        {
          "internalType": "string",
          "name": "name",
          "type": "string"
        }
      ],
      "name": "InvalidName",
      "type": "error"
    },
    {
      "inputs": [],
      "name": "Unauthorized",
      "type": "error"
    },
    {
      "anonymous": false,
      "inputs": [
        {
          "indexed": true,
          "internalType": "address",
          "name": "owner",
          "type": "address"
        },
        {
          "indexed": true,
          "internalType": "address",
          "name": "approved",
          "type": "address"
        },
        {
          "indexed": true,
          "internalType": "uint256",
          "name": "tokenId",
          "type": "uint256"
        }
      ],
      "name": "Approval",
      "type": "event"
    },
    {
      "anonymous": false,
      "inputs": [
        {
          "indexed": true,
          "internalType": "address",
          "name": "owner",
          "type": "address"
        },
        {
          "indexed": true,
          "internalType": "address",
          "name": "operator",
          "type": "address"
        },
        {
          "indexed": false,
          "internalType": "bool",
          "name": "approved",
          "type": "bool"
        }
      ],
      "name": "ApprovalForAll",
      "type": "event"
    },
    {
      "anonymous": false,
      "inputs": [
        {
          "indexed": true,
          "internalType": "address",
          "name": "from",
          "type": "address"
        },
        {
          "indexed": true,
          "internalType": "address",
          "name": "to",
          "type": "address"
        },
        {
          "indexed": true,
          "internalType": "uint256",
          "name": "tokenId",
          "type": "uint256"
        }
      ],
      "name": "Transfer",
      "type": "event"
    },
    {
      "inputs": [
        {
          "internalType": "address",
          "name": "to",
          "type": "address"
        },
        {
          "internalType": "uint256",
          "name": "tokenId",
          "type": "uint256"
        }
      ],
      "name": "approve",
      "outputs": [],
      "stateMutability": "nonpayable",
      "type": "function"
    },
    {
      "inputs": [
        {
          "internalType": "address",
          "name": "owner",
          "type": "address"
        }
      ],
      "name": "balanceOf",
      "outputs": [
        {
          "internalType": "uint256",
          "name": "",
          "type": "uint256"
        }
      ],
      "stateMutability": "view",
      "type": "function"
    },
    {
      "inputs": [
        {
          "internalType": "string",
          "name": "",
          "type": "string"
        }
      ],
      "name": "domains",
      "outputs": [
        {
          "internalType": "address",
          "name": "",
          "type": "address"
        }
      ],
      "stateMutability": "view",
      "type": "function"
    },
    {
      "inputs": [
        {
          "internalType": "string",
          "name": "name",
          "type": "string"
        }
      ],
      "name": "getAddress",
      "outputs": [
        {
          "internalType": "address",
          "name": "",
          "type": "address"
        }
      ],
      "stateMutability": "view",
      "type": "function"
    },
    {
      "inputs": [
        {
          "internalType": "uint256",
          "name": "tokenId",
          "type": "uint256"
        }
      ],
      "name": "getApproved",
      "outputs": [
        {
          "internalType": "address",
          "name": "",
          "type": "address"
        }
      ],
      "stateMutability": "view",
      "type": "function"
    },
    {
      "inputs": [],
      "name": "getName",
      "outputs": [
        {
          "internalType": "string[]",
          "name": "",
          "type": "string[]"
        }
      ],
      "stateMutability": "view",
      "type": "function"
    },
    {
      "inputs": [
        {
          "internalType": "string",
          "name": "name",
          "type": "string"
        }
      ],
      "name": "getRecord",
      "outputs": [
        {
          "internalType": "string",
          "name": "",
          "type": "string"
        }
      ],
      "stateMutability": "view",
      "type": "function"
    },
    {
      "inputs": [
        {
          "internalType": "address",
          "name": "owner",
          "type": "address"
        },
        {
          "internalType": "address",
          "name": "operator",
          "type": "address"
        }
      ],
      "name": "isApprovedForAll",
      "outputs": [
        {
          "internalType": "bool",
          "name": "",
          "type": "bool"
        }
      ],
      "stateMutability": "view",
      "type": "function"
    },
    {
      "inputs": [],
      "name": "isOwner",
      "outputs": [
        {
          "internalType": "bool",
          "name": "",
          "type": "bool"
        }
      ],
      "stateMutability": "view",
      "type": "function"
    },
    {
      "inputs": [],
      "name": "name",
      "outputs": [
        {
          "internalType": "string",
          "name": "",
          "type": "string"
        }
      ],
      "stateMutability": "view",
      "type": "function"
    },
    {
      "inputs": [
        {
          "internalType": "uint256",
          "name": "",
          "type": "uint256"
        }
      ],
      "name": "names",
      "outputs": [
        {
          "internalType": "string",
          "name": "",
          "type": "string"
        }
      ],
      "stateMutability": "view",
      "type": "function"
    },
    {
      "inputs": [],
      "name": "owner",
      "outputs": [
        {
          "internalType": "address payable",
          "name": "",
          "type": "address"
        }
      ],
      "stateMutability": "view",
      "type": "function"
    },
    {
      "inputs": [
        {
          "internalType": "uint256",
          "name": "tokenId",
          "type": "uint256"
        }
      ],
      "name": "ownerOf",
      "outputs": [
        {
          "internalType": "address",
          "name": "",
          "type": "address"
        }
      ],
      "stateMutability": "view",
      "type": "function"
    },
    {
      "inputs": [
        {
          "internalType": "string",
          "name": "name",
          "type": "string"
        }
      ],
      "name": "price",
      "outputs": [
        {
          "internalType": "uint256",
          "name": "",
          "type": "uint256"
        }
      ],
      "stateMutability": "pure",
      "type": "function"
    },
    {
      "inputs": [
        {
          "internalType": "string",
          "name": "",
          "type": "string"
        }
      ],
      "name": "records",
      "outputs": [
        {
          "internalType": "string",
          "name": "",
          "type": "string"
        }
      ],
      "stateMutability": "view",
      "type": "function"
    },
    {
      "inputs": [
        {
          "internalType": "string",
          "name": "name",
          "type": "string"
        }
      ],
      "name": "register",
      "outputs": [],
      "stateMutability": "payable",
      "type": "function"
    },
    {
      "inputs": [
        {
          "internalType": "address",
          "name": "from",
          "type": "address"
        },
        {
          "internalType": "address",
          "name": "to",
          "type": "address"
        },
        {
          "internalType": "uint256",
          "name": "tokenId",
          "type": "uint256"
        }
      ],
      "name": "safeTransferFrom",
      "outputs": [],
      "stateMutability": "nonpayable",
      "type": "function"
    },
    {
      "inputs": [
        {
          "internalType": "address",
          "name": "from",
          "type": "address"
        },
        {
          "internalType": "address",
          "name": "to",
          "type": "address"
        },
        {
          "internalType": "uint256",
          "name": "tokenId",
          "type": "uint256"
        },
        {
          "internalType": "bytes",
          "name": "_data",
          "type": "bytes"
        }
      ],
      "name": "safeTransferFrom",
      "outputs": [],
      "stateMutability": "nonpayable",
      "type": "function"
    },
    {
      "inputs": [
        {
          "internalType": "address",
          "name": "operator",
          "type": "address"
        },
        {
          "internalType": "bool",
          "name": "approved",
          "type": "bool"
        }
      ],
      "name": "setApprovalForAll",
      "outputs": [],
      "stateMutability": "nonpayable",
      "type": "function"
    },
    {
      "inputs": [
        {
          "internalType": "string",
          "name": "name",
          "type": "string"
        },
        {
          "internalType": "string",
          "name": "record",
          "type": "string"
        }
      ],
      "name": "setRecord",
      "outputs": [],
      "stateMutability": "nonpayable",
      "type": "function"
    },
    {
      "inputs": [
        {
          "internalType": "bytes4",
          "name": "interfaceId",
          "type": "bytes4"
        }
      ],
      "name": "supportsInterface",
      "outputs": [
        {
          "internalType": "bool",
          "name": "",
          "type": "bool"
        }
      ],
      "stateMutability": "view",
      "type": "function"
    },
    {
      "inputs": [],
      "name": "symbol",
      "outputs": [
        {
          "internalType": "string",
          "name": "",
          "type": "string"
        }
      ],
      "stateMutability": "view",
      "type": "function"
    },
    {
      "inputs": [],
      "name": "tld",
      "outputs": [
        {
          "internalType": "string",
          "name": "",
          "type": "string"
        }
      ],
      "stateMutability": "view",
      "type": "function"
    },
    {
      "inputs": [
        {
          "internalType": "uint256",
          "name": "tokenId",
          "type": "uint256"
        }
      ],
      "name": "tokenURI",
      "outputs": [
        {
          "internalType": "string",
          "name": "",
          "type": "string"
        }
      ],
      "stateMutability": "view",
      "type": "function"
    },
    {
      "inputs": [
        {
          "internalType": "address",
          "name": "from",
          "type": "address"
        },
        {
          "internalType": "address",
          "name": "to",
          "type": "address"
        },
        {
          "internalType": "uint256",
          "name": "tokenId",
          "type": "uint256"
        }
      ],
      "name": "transferFrom",
      "outputs": [],
      "stateMutability": "nonpayable",
      "type": "function"
    },
    {
      "inputs": [
        {
          "internalType": "string",
          "name": "name",
          "type": "string"
        }
      ],
      "name": "valid",
      "outputs": [
        {
          "internalType": "bool",
          "name": "",
          "type": "bool"
        }
      ],
      "stateMutability": "pure",
      "type": "function"
    },
    {
      "inputs": [],
      "name": "withdraw",
      "outputs": [],
      "stateMutability": "nonpayable",
      "type": "function"
    }
  ],
  "bytecode": "0x6080604052604051806107a0016040528061076681526020016200513e6107669139600a908051906020019062000038929190620002c8565b506040518060400160405280600d81526020017f3c2f746578743e3c2f7376673e00000000000000000000000000000000000000815250600b908051906020019062000086929190620002c8565b50604051620058a4380380620058a48339818101604052810190620000ac919062000515565b6040518060400160405280601081526020017f4f574c204e616d652053657276696365000000000000000000000000000000008152506040518060400160405280600381526020017f4f4e530000000000000000000000000000000000000000000000000000000000815250816000908051906020019062000130929190620002c8565b50806001908051906020019062000149929190620002c8565b50505033600760006101000a81548173ffffffffffffffffffffffffffffffffffffffff021916908373ffffffffffffffffffffffffffffffffffffffff1602179055508060099080519060200190620001a5929190620002c8565b50620001f26040518060400160405280601881526020017f2573206e616d652073657276696365206465706c6f796564000000000000000081525082620001f960201b62001a791760201c565b5062000663565b6200029b828260405160240162000212929190620005c3565b6040516020818303038152906040527f4b5c4277000000000000000000000000000000000000000000000000000000007bffffffffffffffffffffffffffffffffffffffffffffffffffffffff19166020820180517bffffffffffffffffffffffffffffffffffffffffffffffffffffffff83818316178352505050506200029f60201b60201c565b5050565b60008151905060006a636f6e736f6c652e6c6f679050602083016000808483855afa5050505050565b828054620002d6906200062d565b90600052602060002090601f016020900481019282620002fa576000855562000346565b82601f106200031557805160ff191683800117855562000346565b8280016001018555821562000346579182015b828111156200034557825182559160200191906001019062000328565b5b50905062000355919062000359565b5090565b5b80821115620003745760008160009055506001016200035a565b5090565b6000604051905090565b600080fd5b600080fd5b600080fd5b600080fd5b6000601f19601f8301169050919050565b7f4e487b7100000000000000000000000000000000000000000000000000000000600052604160045260246000fd5b620003e18262000396565b810181811067ffffffffffffffff82111715620004035762000402620003a7565b5b80604052505050565b60006200041862000378565b9050620004268282620003d6565b919050565b600067ffffffffffffffff821115620004495762000448620003a7565b5b620004548262000396565b9050602081019050919050565b60005b838110156200048157808201518184015260208101905062000464565b8381111562000491576000848401525b50505050565b6000620004ae620004a8846200042b565b6200040c565b905082815260208101848484011115620004cd57620004cc62000391565b5b620004da84828562000461565b509392505050565b600082601f830112620004fa57620004f96200038c565b5b81516200050c84826020860162000497565b91505092915050565b6000602082840312156200052e576200052d62000382565b5b600082015167ffffffffffffffff8111156200054f576200054e62000387565b5b6200055d84828501620004e2565b91505092915050565b600081519050919050565b600082825260208201905092915050565b60006200058f8262000566565b6200059b818562000571565b9350620005ad81856020860162000461565b620005b88162000396565b840191505092915050565b60006040820190508181036000830152620005df818562000582565b90508181036020830152620005f5818462000582565b90509392505050565b7f4e487b7100000000000000000000000000000000000000000000000000000000600052602260045260246000fd5b600060028204905060018216806200064657607f821691505b602082108114156200065d576200065c620005fe565b5b50919050565b614acb80620006736000396000f3fe60806040526004361061019c5760003560e01c80636352211e116100ec578063b88d4fde1161008a578063c87b56dd11610064578063c87b56dd14610612578063e985e9c51461064f578063f2c298be1461068c578063fe2c6198146106a85761019c565b8063b88d4fde14610583578063bf40fac1146105ac578063c1880a98146105e95761019c565b80638f32d59b116100c65780638f32d59b146104c757806395d89b41146104f25780639791c0971461051d578063a22cb4651461055a5761019c565b80636352211e1461042257806370a082311461045f5780638da5cb5b1461049c5761019c565b806323b872dd116101595780633ccfd60b116101335780633ccfd60b1461036857806342842e0e1461037f5780634622ab03146103a8578063541e771d146103e55761019c565b806323b872dd146102d757806326449235146103005780632d5514321461033d5761019c565b806301ffc9a7146101a157806306fdde03146101de578063081812fc14610209578063095ea7b31461024657806311dd88451461026f57806317d7de7c146102ac575b600080fd5b3480156101ad57600080fd5b506101c860048036038101906101c39190612ec2565b6106e5565b6040516101d59190612f0a565b60405180910390f35b3480156101ea57600080fd5b506101f36107c7565b6040516102009190612fbe565b60405180910390f35b34801561021557600080fd5b50610230600480360381019061022b9190613016565b610859565b60405161023d9190613084565b60405180910390f35b34801561025257600080fd5b5061026d600480360381019061026891906130cb565b6108de565b005b34801561027b57600080fd5b5061029660048036038101906102919190613170565b6109f6565b6040516102a39190612fbe565b60405180910390f35b3480156102b857600080fd5b506102c1610aa9565b6040516102ce91906132c9565b60405180910390f35b3480156102e357600080fd5b506102fe60048036038101906102f991906132eb565b610c49565b005b34801561030c57600080fd5b506103276004803603810190610322919061346e565b610ca9565b6040516103349190613084565b60405180910390f35b34801561034957600080fd5b50610352610cf2565b60405161035f9190612fbe565b60405180910390f35b34801561037457600080fd5b5061037d610d80565b005b34801561038b57600080fd5b506103a660048036038101906103a191906132eb565b610e46565b005b3480156103b457600080fd5b506103cf60048036038101906103ca9190613016565b610e66565b6040516103dc9190612fbe565b60405180910390f35b3480156103f157600080fd5b5061040c6004803603810190610407919061346e565b610f06565b6040516104199190612fbe565b60405180910390f35b34801561042e57600080fd5b5061044960048036038101906104449190613016565b610fbc565b6040516104569190613084565b60405180910390f35b34801561046b57600080fd5b50610486600480360381019061048191906134b7565b61106e565b60405161049391906134f3565b60405180910390f35b3480156104a857600080fd5b506104b1611126565b6040516104be919061352f565b60405180910390f35b3480156104d357600080fd5b506104dc61114c565b6040516104e99190612f0a565b60405180910390f35b3480156104fe57600080fd5b506105076111a4565b6040516105149190612fbe565b60405180910390f35b34801561052957600080fd5b50610544600480360381019061053f9190613170565b611236565b6040516105519190612f0a565b60405180910390f35b34801561056657600080fd5b50610581600480360381019061057c9190613576565b6112ea565b005b34801561058f57600080fd5b506105aa60048036038101906105a59190613657565b611300565b005b3480156105b857600080fd5b506105d360048036038101906105ce9190613170565b611362565b6040516105e09190613084565b60405180910390f35b3480156105f557600080fd5b50610610600480360381019061060b91906136da565b6113ad565b005b34801561061e57600080fd5b5061063960048036038101906106349190613016565b611488565b6040516106469190612fbe565b60405180910390f35b34801561065b57600080fd5b506106766004803603810190610671919061375b565b6115da565b6040516106839190612f0a565b60405180910390f35b6106a660048036038101906106a19190613170565b61166e565b005b3480156106b457600080fd5b506106cf60048036038101906106ca9190613170565b6119e0565b6040516106dc91906134f3565b60405180910390f35b60007f80ac58cd000000000000000000000000000000000000000000000000000000007bffffffffffffffffffffffffffffffffffffffffffffffffffffffff1916827bffffffffffffffffffffffffffffffffffffffffffffffffffffffff191614806107b057507f5b5e139f000000000000000000000000000000000000000000000000000000007bffffffffffffffffffffffffffffffffffffffffffffffffffffffff1916827bffffffffffffffffffffffffffffffffffffffffffffffffffffffff1916145b806107c057506107bf82611b15565b5b9050919050565b6060600080546107d6906137ca565b80601f0160208091040260200160405190810160405280929190818152602001828054610802906137ca565b801561084f5780601f106108245761010080835404028352916020019161084f565b820191906000526020600020905b81548152906001019060200180831161083257829003601f168201915b5050505050905090565b600061086482611b7f565b6108a3576040517f08c379a000000000000000000000000000000000000000000000000000000000815260040161089a9061386e565b60405180910390fd5b6004600083815260200190815260200160002060009054906101000a900473ffffffffffffffffffffffffffffffffffffffff169050919050565b60006108e982610fbc565b90508073ffffffffffffffffffffffffffffffffffffffff168373ffffffffffffffffffffffffffffffffffffffff16141561095a576040517f08c379a000000000000000000000000000000000000000000000000000000000815260040161095190613900565b60405180910390fd5b8073ffffffffffffffffffffffffffffffffffffffff16610979611beb565b73ffffffffffffffffffffffffffffffffffffffff1614806109a857506109a7816109a2611beb565b6115da565b5b6109e7576040517f08c379a00000000000000000000000000000000000000000000000000000000081526004016109de90613992565b60405180910390fd5b6109f18383611bf3565b505050565b6060600d8383604051610a0a9291906139e2565b90815260200160405180910390208054610a23906137ca565b80601f0160208091040260200160405190810160405280929190818152602001828054610a4f906137ca565b8015610a9c5780601f10610a7157610100808354040283529160200191610a9c565b820191906000526020600020905b815481529060010190602001808311610a7f57829003601f168201915b5050505050905092915050565b60606000610ab76008611cac565b67ffffffffffffffff811115610ad057610acf613343565b5b604051908082528060200260200182016040528015610b0357816020015b6060815260200190600190039081610aee5790505b50905060005b610b136008611cac565b811015610c4157600e60008281526020019081526020016000208054610b38906137ca565b80601f0160208091040260200160405190810160405280929190818152602001828054610b64906137ca565b8015610bb15780601f10610b8657610100808354040283529160200191610bb1565b820191906000526020600020905b815481529060010190602001808311610b9457829003601f168201915b5050505050828281518110610bc957610bc86139fb565b5b6020026020010181905250610c2e6040518060400160405280601781526020017f4e616d6520666f7220746f6b656e20256420697320257300000000000000000081525082848481518110610c2157610c206139fb565b5b6020026020010151611cba565b8080610c3990613a59565b915050610b09565b508091505090565b610c5a610c54611beb565b82611d59565b610c99576040517f08c379a0000000000000000000000000000000000000000000000000000000008152600401610c9090613b14565b60405180910390fd5b610ca4838383611e37565b505050565b600c818051602081018201805184825260208301602085012081835280955050505050506000915054906101000a900473ffffffffffffffffffffffffffffffffffffffff1681565b60098054610cff906137ca565b80601f0160208091040260200160405190810160405280929190818152602001828054610d2b906137ca565b8015610d785780601f10610d4d57610100808354040283529160200191610d78565b820191906000526020600020905b815481529060010190602001808311610d5b57829003601f168201915b505050505081565b610d8861114c565b610d9157600080fd5b600047905060003373ffffffffffffffffffffffffffffffffffffffff1682604051610dbc90613b65565b60006040518083038185875af1925050503d8060008114610df9576040519150601f19603f3d011682016040523d82523d6000602084013e610dfe565b606091505b5050905080610e42576040517f08c379a0000000000000000000000000000000000000000000000000000000008152600401610e3990613bc6565b60405180910390fd5b5050565b610e6183838360405180602001604052806000815250611300565b505050565b600e6020528060005260406000206000915090508054610e85906137ca565b80601f0160208091040260200160405190810160405280929190818152602001828054610eb1906137ca565b8015610efe5780601f10610ed357610100808354040283529160200191610efe565b820191906000526020600020905b815481529060010190602001808311610ee157829003601f168201915b505050505081565b600d818051602081018201805184825260208301602085012081835280955050505050506000915090508054610f3b906137ca565b80601f0160208091040260200160405190810160405280929190818152602001828054610f67906137ca565b8015610fb45780601f10610f8957610100808354040283529160200191610fb4565b820191906000526020600020905b815481529060010190602001808311610f9757829003601f168201915b505050505081565b6000806002600084815260200190815260200160002060009054906101000a900473ffffffffffffffffffffffffffffffffffffffff169050600073ffffffffffffffffffffffffffffffffffffffff168173ffffffffffffffffffffffffffffffffffffffff161415611065576040517f08c379a000000000000000000000000000000000000000000000000000000000815260040161105c90613c58565b60405180910390fd5b80915050919050565b60008073ffffffffffffffffffffffffffffffffffffffff168273ffffffffffffffffffffffffffffffffffffffff1614156110df576040517f08c379a00000000000000000000000000000000000000000000000000000000081526004016110d690613cea565b60405180910390fd5b600360008373ffffffffffffffffffffffffffffffffffffffff1673ffffffffffffffffffffffffffffffffffffffff168152602001908152602001600020549050919050565b600760009054906101000a900473ffffffffffffffffffffffffffffffffffffffff1681565b6000600760009054906101000a900473ffffffffffffffffffffffffffffffffffffffff1673ffffffffffffffffffffffffffffffffffffffff163373ffffffffffffffffffffffffffffffffffffffff1614905090565b6060600180546111b3906137ca565b80601f01602080910402602001604051908101604052809291908181526020018280546111df906137ca565b801561122c5780601f106112015761010080835404028352916020019161122c565b820191906000526020600020905b81548152906001019060200180831161120f57829003601f168201915b5050505050905090565b6000600361128784848080601f016020809104026020016040519081016040528093929190818152602001838380828437600081840152601f19601f8201169050808301925050505050505061209e565b101580156112e25750600a6112df84848080601f016020809104026020016040519081016040528093929190818152602001838380828437600081840152601f19601f8201169050808301925050505050505061209e565b11155b905092915050565b6112fc6112f5611beb565b8383612253565b5050565b61131161130b611beb565b83611d59565b611350576040517f08c379a000000000000000000000000000000000000000000000000000000000815260040161134790613b14565b60405180910390fd5b61135c848484846123c0565b50505050565b6000600c83836040516113769291906139e2565b908152602001604051809103902060009054906101000a900473ffffffffffffffffffffffffffffffffffffffff16905092915050565b600c84846040516113bf9291906139e2565b908152602001604051809103902060009054906101000a900473ffffffffffffffffffffffffffffffffffffffff1673ffffffffffffffffffffffffffffffffffffffff163373ffffffffffffffffffffffffffffffffffffffff1614611452576040517f82b4290000000000000000000000000000000000000000000000000000000000815260040160405180910390fd5b8181600d86866040516114669291906139e2565b90815260200160405180910390209190611481929190612d2d565b5050505050565b606061149382611b7f565b6114d2576040517f08c379a00000000000000000000000000000000000000000000000000000000081526004016114c990613d7c565b60405180910390fd5b60006006600084815260200190815260200160002080546114f2906137ca565b80601f016020809104026020016040519081016040528092919081815260200182805461151e906137ca565b801561156b5780601f106115405761010080835404028352916020019161156b565b820191906000526020600020905b81548152906001019060200180831161154e57829003601f168201915b50505050509050600061157c61241c565b90506000815114156115925781925050506115d5565b6000825111156115c75780826040516020016115af929190613dcd565b604051602081830303815290604052925050506115d5565b6115d084612433565b925050505b919050565b6000600560008473ffffffffffffffffffffffffffffffffffffffff1673ffffffffffffffffffffffffffffffffffffffff16815260200190815260200160002060008373ffffffffffffffffffffffffffffffffffffffff1673ffffffffffffffffffffffffffffffffffffffff16815260200190815260200160002060009054906101000a900460ff16905092915050565b600073ffffffffffffffffffffffffffffffffffffffff16600c83836040516116989291906139e2565b908152602001604051809103902060009054906101000a900473ffffffffffffffffffffffffffffffffffffffff1673ffffffffffffffffffffffffffffffffffffffff1614611714576040517f3a81d6fc00000000000000000000000000000000000000000000000000000000815260040160405180910390fd5b61171e8282611236565b6117615781816040517f7f19f48d000000000000000000000000000000000000000000000000000000008152600401611758929190613e1e565b60405180910390fd5b600061176d83836119e0565b9050803410156117b2576040517f08c379a00000000000000000000000000000000000000000000000000000000081526004016117a990613eb4565b60405180910390fd5b6000838360096040516020016117ca93929190613fb4565b60405160208183030381529060405290506000600a82600b6040516020016117f493929190613fe5565b604051602081830303815290604052905060006118116008611cac565b9050600061186287878080601f016020809104026020016040519081016040528093929190818152602001838380828437600081840152601f19601f8201169050808301925050505050505061209e565b9050600061186f826124da565b90506118d86040518060600160405280602f8152602001614a67602f913989898080601f016020809104026020016040519081016040528093929190818152602001838380828437600081840152601f19601f820116905080830192505050505050508561263b565b600061190e866118e7876126da565b846040516020016118fa93929190614192565b6040516020818303038152906040526126da565b9050600081604051602001611923919061423b565b604051602081830303815290604052905061193e3386612872565b6119488582612890565b33600c8b8b60405161195b9291906139e2565b908152602001604051809103902060006101000a81548173ffffffffffffffffffffffffffffffffffffffff021916908373ffffffffffffffffffffffffffffffffffffffff1602179055508989600e600088815260200190815260200160002091906119c9929190612d2d565b506119d46008612904565b50505050505050505050565b600080611a3084848080601f016020809104026020016040519081016040528093929190818152602001838380828437600081840152601f19601f8201169050808301925050505050505061209e565b90506003811415611a4c576706f05b59d3b20000915050611a73565b6004811415611a6657670429d069189e0000915050611a73565b67016345785d8a00009150505b92915050565b611b118282604051602401611a8f92919061425d565b6040516020818303038152906040527f4b5c4277000000000000000000000000000000000000000000000000000000007bffffffffffffffffffffffffffffffffffffffffffffffffffffffff19166020820180517bffffffffffffffffffffffffffffffffffffffffffffffffffffffff838183161783525050505061291a565b5050565b60007f01ffc9a7000000000000000000000000000000000000000000000000000000007bffffffffffffffffffffffffffffffffffffffffffffffffffffffff1916827bffffffffffffffffffffffffffffffffffffffffffffffffffffffff1916149050919050565b60008073ffffffffffffffffffffffffffffffffffffffff166002600084815260200190815260200160002060009054906101000a900473ffffffffffffffffffffffffffffffffffffffff1673ffffffffffffffffffffffffffffffffffffffff1614159050919050565b600033905090565b816004600083815260200190815260200160002060006101000a81548173ffffffffffffffffffffffffffffffffffffffff021916908373ffffffffffffffffffffffffffffffffffffffff160217905550808273ffffffffffffffffffffffffffffffffffffffff16611c6683610fbc565b73ffffffffffffffffffffffffffffffffffffffff167f8c5be1e5ebec7d5bd14f71427d1e84f3dd0314c0f7b2291e5b200ac8c7c3b92560405160405180910390a45050565b600081600001549050919050565b611d54838383604051602401611cd293929190614294565b6040516020818303038152906040527fa3f5c739000000000000000000000000000000000000000000000000000000007bffffffffffffffffffffffffffffffffffffffffffffffffffffffff19166020820180517bffffffffffffffffffffffffffffffffffffffffffffffffffffffff838183161783525050505061291a565b505050565b6000611d6482611b7f565b611da3576040517f08c379a0000000000000000000000000000000000000000000000000000000008152600401611d9a9061434b565b60405180910390fd5b6000611dae83610fbc565b90508073ffffffffffffffffffffffffffffffffffffffff168473ffffffffffffffffffffffffffffffffffffffff161480611df05750611def81856115da565b5b80611e2e57508373ffffffffffffffffffffffffffffffffffffffff16611e1684610859565b73ffffffffffffffffffffffffffffffffffffffff16145b91505092915050565b8273ffffffffffffffffffffffffffffffffffffffff16611e5782610fbc565b73ffffffffffffffffffffffffffffffffffffffff1614611ead576040517f08c379a0000000000000000000000000000000000000000000000000000000008152600401611ea4906143dd565b60405180910390fd5b600073ffffffffffffffffffffffffffffffffffffffff168273ffffffffffffffffffffffffffffffffffffffff161415611f1d576040517f08c379a0000000000000000000000000000000000000000000000000000000008152600401611f149061446f565b60405180910390fd5b611f28838383612943565b611f33600082611bf3565b6001600360008573ffffffffffffffffffffffffffffffffffffffff1673ffffffffffffffffffffffffffffffffffffffff1681526020019081526020016000206000828254611f83919061448f565b925050819055506001600360008473ffffffffffffffffffffffffffffffffffffffff1673ffffffffffffffffffffffffffffffffffffffff1681526020019081526020016000206000828254611fda91906144c3565b92505081905550816002600083815260200190815260200160002060006101000a81548173ffffffffffffffffffffffffffffffffffffffff021916908373ffffffffffffffffffffffffffffffffffffffff160217905550808273ffffffffffffffffffffffffffffffffffffffff168473ffffffffffffffffffffffffffffffffffffffff167fddf252ad1be2c89b69c2b068fc378daa952ba7f163c4a11628f55a4df523b3ef60405160405180910390a4612099838383612948565b505050565b60008060008084519050600092505b808210156122485760008583815181106120ca576120c96139fb565b5b602001015160f81c60f81b9050608060f81b817effffffffffffffffffffffffffffffffffffffffffffffffffffffffffffff191610156121195760018361211291906144c3565b9250612234565b60e060f81b817effffffffffffffffffffffffffffffffffffffffffffffffffffffffffffff1916101561215b5760028361215491906144c3565b9250612233565b60f060f81b817effffffffffffffffffffffffffffffffffffffffffffffffffffffffffffff1916101561219d5760038361219691906144c3565b9250612232565b60f8801b817effffffffffffffffffffffffffffffffffffffffffffffffffffffffffffff191610156121de576004836121d791906144c3565b9250612231565b60fc60f81b817effffffffffffffffffffffffffffffffffffffffffffffffffffffffffffff191610156122205760058361221991906144c3565b9250612230565b60068361222d91906144c3565b92505b5b5b5b5b50828061224090613a59565b9350506120ad565b829350505050919050565b8173ffffffffffffffffffffffffffffffffffffffff168373ffffffffffffffffffffffffffffffffffffffff1614156122c2576040517f08c379a00000000000000000000000000000000000000000000000000000000081526004016122b990614565565b60405180910390fd5b80600560008573ffffffffffffffffffffffffffffffffffffffff1673ffffffffffffffffffffffffffffffffffffffff16815260200190815260200160002060008473ffffffffffffffffffffffffffffffffffffffff1673ffffffffffffffffffffffffffffffffffffffff16815260200190815260200160002060006101000a81548160ff0219169083151502179055508173ffffffffffffffffffffffffffffffffffffffff168373ffffffffffffffffffffffffffffffffffffffff167f17307eab39ab6107e8899845ad3d59bd9653f200f220920489ca2b5937696c31836040516123b39190612f0a565b60405180910390a3505050565b6123cb848484611e37565b6123d78484848461294d565b612416576040517f08c379a000000000000000000000000000000000000000000000000000000000815260040161240d906145f7565b60405180910390fd5b50505050565b606060405180602001604052806000815250905090565b606061243e82611b7f565b61247d576040517f08c379a000000000000000000000000000000000000000000000000000000000815260040161247490614689565b60405180910390fd5b600061248761241c565b905060008151116124a757604051806020016040528060008152506124d2565b806124b1846124da565b6040516020016124c2929190613dcd565b6040516020818303038152906040525b915050919050565b60606000821415612522576040518060400160405280600181526020017f30000000000000000000000000000000000000000000000000000000000000008152509050612636565b600082905060005b6000821461255457808061253d90613a59565b915050600a8261254d91906146d8565b915061252a565b60008167ffffffffffffffff8111156125705761256f613343565b5b6040519080825280601f01601f1916602001820160405280156125a25781602001600182028036833780820191505090505b5090505b6000851461262f576001826125bb919061448f565b9150600a856125ca9190614709565b60306125d691906144c3565b60f81b8183815181106125ec576125eb6139fb565b5b60200101907effffffffffffffffffffffffffffffffffffffffffffffffffffffffffffff1916908160001a905350600a8561262891906146d8565b94506125a6565b8093505050505b919050565b6126d58383836040516024016126539392919061473a565b6040516020818303038152906040527ff362ca59000000000000000000000000000000000000000000000000000000007bffffffffffffffffffffffffffffffffffffffffffffffffffffffff19166020820180517bffffffffffffffffffffffffffffffffffffffffffffffffffffffff838183161783525050505061291a565b505050565b60606000825190506000811415612703576040518060200160405280600081525091505061286d565b6000600360028361271491906144c3565b61271e91906146d8565b600461272a919061477f565b9050600060208261273b91906144c3565b67ffffffffffffffff81111561275457612753613343565b5b6040519080825280601f01601f1916602001820160405280156127865781602001600182028036833780820191505090505b5090506000604051806060016040528060408152602001614a27604091399050600181016020830160005b8681101561282a5760038101905062ffffff818a015116603f8160121c168401518060081b905060ff603f83600c1c1686015116810190508060081b905060ff603f8360061c1686015116810190508060081b905060ff603f831686015116810190508060e01b905080845260048401935050506127b1565b50600386066001811461284457600281146128545761285f565b613d3d60f01b600283035261285f565b603d60f81b60018303525b508484525050819450505050505b919050565b61288c828260405180602001604052806000815250612ad5565b5050565b61289982611b7f565b6128d8576040517f08c379a00000000000000000000000000000000000000000000000000000000081526004016128cf9061484b565b60405180910390fd5b806006600084815260200190815260200160002090805190602001906128ff929190612db3565b505050565b6001816000016000828254019250508190555050565b60008151905060006a636f6e736f6c652e6c6f679050602083016000808483855afa5050505050565b505050565b505050565b600061296e8473ffffffffffffffffffffffffffffffffffffffff16612b30565b15612ac8578373ffffffffffffffffffffffffffffffffffffffff1663150b7a02612997611beb565b8786866040518563ffffffff1660e01b81526004016129b994939291906148c0565b6020604051808303816000875af19250505080156129f557506040513d601f19601f820116820180604052508101906129f29190614921565b60015b612a78573d8060008114612a25576040519150601f19603f3d011682016040523d82523d6000602084013e612a2a565b606091505b50600081511415612a70576040517f08c379a0000000000000000000000000000000000000000000000000000000008152600401612a67906145f7565b60405180910390fd5b805181602001fd5b63150b7a0260e01b7bffffffffffffffffffffffffffffffffffffffffffffffffffffffff1916817bffffffffffffffffffffffffffffffffffffffffffffffffffffffff191614915050612acd565b600190505b949350505050565b612adf8383612b53565b612aec600084848461294d565b612b2b576040517f08c379a0000000000000000000000000000000000000000000000000000000008152600401612b22906145f7565b60405180910390fd5b505050565b6000808273ffffffffffffffffffffffffffffffffffffffff163b119050919050565b600073ffffffffffffffffffffffffffffffffffffffff168273ffffffffffffffffffffffffffffffffffffffff161415612bc3576040517f08c379a0000000000000000000000000000000000000000000000000000000008152600401612bba9061499a565b60405180910390fd5b612bcc81611b7f565b15612c0c576040517f08c379a0000000000000000000000000000000000000000000000000000000008152600401612c0390614a06565b60405180910390fd5b612c1860008383612943565b6001600360008473ffffffffffffffffffffffffffffffffffffffff1673ffffffffffffffffffffffffffffffffffffffff1681526020019081526020016000206000828254612c6891906144c3565b92505081905550816002600083815260200190815260200160002060006101000a81548173ffffffffffffffffffffffffffffffffffffffff021916908373ffffffffffffffffffffffffffffffffffffffff160217905550808273ffffffffffffffffffffffffffffffffffffffff16600073ffffffffffffffffffffffffffffffffffffffff167fddf252ad1be2c89b69c2b068fc378daa952ba7f163c4a11628f55a4df523b3ef60405160405180910390a4612d2960008383612948565b5050565b828054612d39906137ca565b90600052602060002090601f016020900481019282612d5b5760008555612da2565b82601f10612d7457803560ff1916838001178555612da2565b82800160010185558215612da2579182015b82811115612da1578235825591602001919060010190612d86565b5b509050612daf9190612e39565b5090565b828054612dbf906137ca565b90600052602060002090601f016020900481019282612de15760008555612e28565b82601f10612dfa57805160ff1916838001178555612e28565b82800160010185558215612e28579182015b82811115612e27578251825591602001919060010190612e0c565b5b509050612e359190612e39565b5090565b5b80821115612e52576000816000905550600101612e3a565b5090565b6000604051905090565b600080fd5b600080fd5b60007fffffffff0000000000000000000000000000000000000000000000000000000082169050919050565b612e9f81612e6a565b8114612eaa57600080fd5b50565b600081359050612ebc81612e96565b92915050565b600060208284031215612ed857612ed7612e60565b5b6000612ee684828501612ead565b91505092915050565b60008115159050919050565b612f0481612eef565b82525050565b6000602082019050612f1f6000830184612efb565b92915050565b600081519050919050565b600082825260208201905092915050565b60005b83811015612f5f578082015181840152602081019050612f44565b83811115612f6e576000848401525b50505050565b6000601f19601f8301169050919050565b6000612f9082612f25565b612f9a8185612f30565b9350612faa818560208601612f41565b612fb381612f74565b840191505092915050565b60006020820190508181036000830152612fd88184612f85565b905092915050565b6000819050919050565b612ff381612fe0565b8114612ffe57600080fd5b50565b60008135905061301081612fea565b92915050565b60006020828403121561302c5761302b612e60565b5b600061303a84828501613001565b91505092915050565b600073ffffffffffffffffffffffffffffffffffffffff82169050919050565b600061306e82613043565b9050919050565b61307e81613063565b82525050565b60006020820190506130996000830184613075565b92915050565b6130a881613063565b81146130b357600080fd5b50565b6000813590506130c58161309f565b92915050565b600080604083850312156130e2576130e1612e60565b5b60006130f0858286016130b6565b925050602061310185828601613001565b9150509250929050565b600080fd5b600080fd5b600080fd5b60008083601f8401126131305761312f61310b565b5b8235905067ffffffffffffffff81111561314d5761314c613110565b5b60208301915083600182028301111561316957613168613115565b5b9250929050565b6000806020838503121561318757613186612e60565b5b600083013567ffffffffffffffff8111156131a5576131a4612e65565b5b6131b18582860161311a565b92509250509250929050565b600081519050919050565b600082825260208201905092915050565b6000819050602082019050919050565b600082825260208201905092915050565b600061320582612f25565b61320f81856131e9565b935061321f818560208601612f41565b61322881612f74565b840191505092915050565b600061323f83836131fa565b905092915050565b6000602082019050919050565b600061325f826131bd565b61326981856131c8565b93508360208202850161327b856131d9565b8060005b858110156132b757848403895281516132988582613233565b94506132a383613247565b925060208a0199505060018101905061327f565b50829750879550505050505092915050565b600060208201905081810360008301526132e38184613254565b905092915050565b60008060006060848603121561330457613303612e60565b5b6000613312868287016130b6565b9350506020613323868287016130b6565b925050604061333486828701613001565b9150509250925092565b600080fd5b7f4e487b7100000000000000000000000000000000000000000000000000000000600052604160045260246000fd5b61337b82612f74565b810181811067ffffffffffffffff8211171561339a57613399613343565b5b80604052505050565b60006133ad612e56565b90506133b98282613372565b919050565b600067ffffffffffffffff8211156133d9576133d8613343565b5b6133e282612f74565b9050602081019050919050565b82818337600083830152505050565b600061341161340c846133be565b6133a3565b90508281526020810184848401111561342d5761342c61333e565b5b6134388482856133ef565b509392505050565b600082601f8301126134555761345461310b565b5b81356134658482602086016133fe565b91505092915050565b60006020828403121561348457613483612e60565b5b600082013567ffffffffffffffff8111156134a2576134a1612e65565b5b6134ae84828501613440565b91505092915050565b6000602082840312156134cd576134cc612e60565b5b60006134db848285016130b6565b91505092915050565b6134ed81612fe0565b82525050565b600060208201905061350860008301846134e4565b92915050565b600061351982613043565b9050919050565b6135298161350e565b82525050565b60006020820190506135446000830184613520565b92915050565b61355381612eef565b811461355e57600080fd5b50565b6000813590506135708161354a565b92915050565b6000806040838503121561358d5761358c612e60565b5b600061359b858286016130b6565b92505060206135ac85828601613561565b9150509250929050565b600067ffffffffffffffff8211156135d1576135d0613343565b5b6135da82612f74565b9050602081019050919050565b60006135fa6135f5846135b6565b6133a3565b9050828152602081018484840111156136165761361561333e565b5b6136218482856133ef565b509392505050565b600082601f83011261363e5761363d61310b565b5b813561364e8482602086016135e7565b91505092915050565b6000806000806080858703121561367157613670612e60565b5b600061367f878288016130b6565b9450506020613690878288016130b6565b93505060406136a187828801613001565b925050606085013567ffffffffffffffff8111156136c2576136c1612e65565b5b6136ce87828801613629565b91505092959194509250565b600080600080604085870312156136f4576136f3612e60565b5b600085013567ffffffffffffffff81111561371257613711612e65565b5b61371e8782880161311a565b9450945050602085013567ffffffffffffffff81111561374157613740612e65565b5b61374d8782880161311a565b925092505092959194509250565b6000806040838503121561377257613771612e60565b5b6000613780858286016130b6565b9250506020613791858286016130b6565b9150509250929050565b7f4e487b7100000000000000000000000000000000000000000000000000000000600052602260045260246000fd5b600060028204905060018216806137e257607f821691505b602082108114156137f6576137f561379b565b5b50919050565b7f4552433732313a20617070726f76656420717565727920666f72206e6f6e657860008201527f697374656e7420746f6b656e0000000000000000000000000000000000000000602082015250565b6000613858602c83612f30565b9150613863826137fc565b604082019050919050565b600060208201905081810360008301526138878161384b565b9050919050565b7f4552433732313a20617070726f76616c20746f2063757272656e74206f776e6560008201527f7200000000000000000000000000000000000000000000000000000000000000602082015250565b60006138ea602183612f30565b91506138f58261388e565b604082019050919050565b60006020820190508181036000830152613919816138dd565b9050919050565b7f4552433732313a20617070726f76652063616c6c6572206973206e6f74206f7760008201527f6e6572206e6f7220617070726f76656420666f7220616c6c0000000000000000602082015250565b600061397c603883612f30565b915061398782613920565b604082019050919050565b600060208201905081810360008301526139ab8161396f565b9050919050565b600081905092915050565b60006139c983856139b2565b93506139d68385846133ef565b82840190509392505050565b60006139ef8284866139bd565b91508190509392505050565b7f4e487b7100000000000000000000000000000000000000000000000000000000600052603260045260246000fd5b7f4e487b7100000000000000000000000000000000000000000000000000000000600052601160045260246000fd5b6000613a6482612fe0565b91507fffffffffffffffffffffffffffffffffffffffffffffffffffffffffffffffff821415613a9757613a96613a2a565b5b600182019050919050565b7f4552433732313a207472616e736665722063616c6c6572206973206e6f74206f60008201527f776e6572206e6f7220617070726f766564000000000000000000000000000000602082015250565b6000613afe603183612f30565b9150613b0982613aa2565b604082019050919050565b60006020820190508181036000830152613b2d81613af1565b9050919050565b600081905092915050565b50565b6000613b4f600083613b34565b9150613b5a82613b3f565b600082019050919050565b6000613b7082613b42565b9150819050919050565b7f4661696c656420746f207769746864726177204d617469630000000000000000600082015250565b6000613bb0601883612f30565b9150613bbb82613b7a565b602082019050919050565b60006020820190508181036000830152613bdf81613ba3565b9050919050565b7f4552433732313a206f776e657220717565727920666f72206e6f6e657869737460008201527f656e7420746f6b656e0000000000000000000000000000000000000000000000602082015250565b6000613c42602983612f30565b9150613c4d82613be6565b604082019050919050565b60006020820190508181036000830152613c7181613c35565b9050919050565b7f4552433732313a2062616c616e636520717565727920666f7220746865207a6560008201527f726f206164647265737300000000000000000000000000000000000000000000602082015250565b6000613cd4602a83612f30565b9150613cdf82613c78565b604082019050919050565b60006020820190508181036000830152613d0381613cc7565b9050919050565b7f45524337323155524953746f726167653a2055524920717565727920666f722060008201527f6e6f6e6578697374656e7420746f6b656e000000000000000000000000000000602082015250565b6000613d66603183612f30565b9150613d7182613d0a565b604082019050919050565b60006020820190508181036000830152613d9581613d59565b9050919050565b6000613da782612f25565b613db181856139b2565b9350613dc1818560208601612f41565b80840191505092915050565b6000613dd98285613d9c565b9150613de58284613d9c565b91508190509392505050565b6000613dfd8385612f30565b9350613e0a8385846133ef565b613e1383612f74565b840190509392505050565b60006020820190508181036000830152613e39818486613df1565b90509392505050565b7f596f7520646f6e74206861766520656e6f756768204d6174696320746f20627560008201527f79207468697320646f6d61696e00000000000000000000000000000000000000602082015250565b6000613e9e602d83612f30565b9150613ea982613e42565b604082019050919050565b60006020820190508181036000830152613ecd81613e91565b9050919050565b7f2e00000000000000000000000000000000000000000000000000000000000000600082015250565b6000613f0a6001836139b2565b9150613f1582613ed4565b600182019050919050565b60008190508160005260206000209050919050565b60008154613f42816137ca565b613f4c81866139b2565b94506001821660008114613f675760018114613f7857613fab565b60ff19831686528186019350613fab565b613f8185613f20565b60005b83811015613fa357815481890152600182019150602081019050613f84565b838801955050505b50505092915050565b6000613fc18285876139bd565b9150613fcc82613efd565b9150613fd88284613f35565b9150819050949350505050565b6000613ff18286613f35565b9150613ffd8285613d9c565b91506140098284613f35565b9150819050949350505050565b7f7b20226e616d65223a2200000000000000000000000000000000000000000000600082015250565b600061404c600a836139b2565b915061405782614016565b600a82019050919050565b7f222c226465736372697074696f6e223a20224120446f6d61696e206e616d652060008201527f6f6e204f776c204e616d652053657276696365222c22696d616765223a22646160208201527f74613a696d6167652f7376672b786d6c3b6261736536342c0000000000000000604082015250565b60006140e46058836139b2565b91506140ef82614062565b605882019050919050565b7f222c226c656e67746822203a2022000000000000000000000000000000000000600082015250565b6000614130600e836139b2565b915061413b826140fa565b600e82019050919050565b7f227d000000000000000000000000000000000000000000000000000000000000600082015250565b600061417c6002836139b2565b915061418782614146565b600282019050919050565b600061419d8261403f565b91506141a98286613d9c565b91506141b4826140d7565b91506141c08285613d9c565b91506141cb82614123565b91506141d78284613d9c565b91506141e28261416f565b9150819050949350505050565b7f646174613a6170706c69636174696f6e2f6a736f6e3b6261736536342c000000600082015250565b6000614225601d836139b2565b9150614230826141ef565b601d82019050919050565b600061424682614218565b91506142528284613d9c565b915081905092915050565b600060408201905081810360008301526142778185612f85565b9050818103602083015261428b8184612f85565b90509392505050565b600060608201905081810360008301526142ae8186612f85565b90506142bd60208301856134e4565b81810360408301526142cf8184612f85565b9050949350505050565b7f4552433732313a206f70657261746f7220717565727920666f72206e6f6e657860008201527f697374656e7420746f6b656e0000000000000000000000000000000000000000602082015250565b6000614335602c83612f30565b9150614340826142d9565b604082019050919050565b6000602082019050818103600083015261436481614328565b9050919050565b7f4552433732313a207472616e736665722066726f6d20696e636f72726563742060008201527f6f776e6572000000000000000000000000000000000000000000000000000000602082015250565b60006143c7602583612f30565b91506143d28261436b565b604082019050919050565b600060208201905081810360008301526143f6816143ba565b9050919050565b7f4552433732313a207472616e7366657220746f20746865207a65726f2061646460008201527f7265737300000000000000000000000000000000000000000000000000000000602082015250565b6000614459602483612f30565b9150614464826143fd565b604082019050919050565b600060208201905081810360008301526144888161444c565b9050919050565b600061449a82612fe0565b91506144a583612fe0565b9250828210156144b8576144b7613a2a565b5b828203905092915050565b60006144ce82612fe0565b91506144d983612fe0565b9250827fffffffffffffffffffffffffffffffffffffffffffffffffffffffffffffffff0382111561450e5761450d613a2a565b5b828201905092915050565b7f4552433732313a20617070726f766520746f2063616c6c657200000000000000600082015250565b600061454f601983612f30565b915061455a82614519565b602082019050919050565b6000602082019050818103600083015261457e81614542565b9050919050565b7f4552433732313a207472616e7366657220746f206e6f6e20455243373231526560008201527f63656976657220696d706c656d656e7465720000000000000000000000000000602082015250565b60006145e1603283612f30565b91506145ec82614585565b604082019050919050565b60006020820190508181036000830152614610816145d4565b9050919050565b7f4552433732314d657461646174613a2055524920717565727920666f72206e6f60008201527f6e6578697374656e7420746f6b656e0000000000000000000000000000000000602082015250565b6000614673602f83612f30565b915061467e82614617565b604082019050919050565b600060208201905081810360008301526146a281614666565b9050919050565b7f4e487b7100000000000000000000000000000000000000000000000000000000600052601260045260246000fd5b60006146e382612fe0565b91506146ee83612fe0565b9250826146fe576146fd6146a9565b5b828204905092915050565b600061471482612fe0565b915061471f83612fe0565b92508261472f5761472e6146a9565b5b828206905092915050565b600060608201905081810360008301526147548186612f85565b905081810360208301526147688185612f85565b905061477760408301846134e4565b949350505050565b600061478a82612fe0565b915061479583612fe0565b9250817fffffffffffffffffffffffffffffffffffffffffffffffffffffffffffffffff04831182151516156147ce576147cd613a2a565b5b828202905092915050565b7f45524337323155524953746f726167653a2055524920736574206f66206e6f6e60008201527f6578697374656e7420746f6b656e000000000000000000000000000000000000602082015250565b6000614835602e83612f30565b9150614840826147d9565b604082019050919050565b6000602082019050818103600083015261486481614828565b9050919050565b600081519050919050565b600082825260208201905092915050565b60006148928261486b565b61489c8185614876565b93506148ac818560208601612f41565b6148b581612f74565b840191505092915050565b60006080820190506148d56000830187613075565b6148e26020830186613075565b6148ef60408301856134e4565b81810360608301526149018184614887565b905095945050505050565b60008151905061491b81612e96565b92915050565b60006020828403121561493757614936612e60565b5b60006149458482850161490c565b91505092915050565b7f4552433732313a206d696e7420746f20746865207a65726f2061646472657373600082015250565b6000614984602083612f30565b915061498f8261494e565b602082019050919050565b600060208201905081810360008301526149b381614977565b9050919050565b7f4552433732313a20746f6b656e20616c7265616479206d696e74656400000000600082015250565b60006149f0601c83612f30565b91506149fb826149ba565b602082019050919050565b60006020820190508181036000830152614a1f816149e3565b905091905056fe4142434445464748494a4b4c4d4e4f505152535455565758595a6162636465666768696a6b6c6d6e6f707172737475767778797a303132333435363738392b2f5265676973746572696e67202573206f6e2074686520436f6e7472616374207769746820746f6b656e206964202573a2646970667358221220f4f519c6fb1d51c8a73434d1b54813df92fbcc948547f8e2f1df5b769c92a4ff64736f6c634300080a00333c73766720786d6c6e733d22687474703a2f2f7777772e77332e6f72672f323030302f737667222077696474683d2233353022206865696768743d22333530222066696c6c3d226e6f6e65223e3c706174682066696c6c3d2275726c282361292220643d224d302030683335307633353048307a222f3e3c646566733e3c66696c7465722069643d22622220636f6c6f722d696e746572706f6c6174696f6e2d66696c746572733d2273524742222066696c746572556e6974733d227573657253706163654f6e55736522206865696768743d22333530222077696474683d22333530223e3c666544726f70536861646f772064783d2230222064793d22312220737464446576696174696f6e3d22322220666c6f6f642d6f7061636974793d222e323235222077696474683d223230302522206865696768743d2232303025222f3e3c2f66696c7465723e3c2f646566733e3c7061746820643d224d37322e3836332034322e39343961342e33383220342e3338322030203020302d342e33393420306c2d31302e30383120362e3033322d362e383520332e3933342d31302e30383120362e30333261342e33383220342e3338322030203020312d342e33393420306c2d382e3031332d342e37323161342e353220342e35322030203020312d312e3538392d312e36313620342e353420342e35342030203020312d2e3630382d322e313837762d392e333161342e323720342e3237203020302031202e3537322d322e32303820342e323520342e323520302030203120312e3632352d312e3539356c372e3838342d342e353961342e33383220342e33383220302030203120342e33393420306c372e38383420342e353961342e353220342e353220302030203120312e35383920312e36313620342e353420342e3534203020302031202e36303820322e31383776362e3033326c362e38352d342e303635762d362e30333261342e323720342e32372030203020302d2e3537322d322e32303820342e323520342e32352030203020302d312e3632352d312e3539354c34312e3435362032342e353961342e33383220342e3338322030203020302d342e33393420306c2d31342e38363420382e36353561342e323520342e32352030203020302d312e36323520312e35393520342e32373320342e3237332030203020302d2e35373220322e3230387631372e34343161342e323720342e3237203020302030202e35373220322e32303820342e323520342e323520302030203020312e36323520312e3539356c31342e38363420382e36353561342e33383220342e33383220302030203020342e33393420306c31302e3038312d352e39303120362e38352d342e3036352031302e3038312d352e39303161342e33383220342e33383220302030203120342e33393420306c372e38383420342e353961342e353220342e353220302030203120312e35383920312e36313620342e353420342e3534203020302031202e36303820322e31383776392e33313161342e323720342e32372030203020312d2e35373220322e32303820342e323520342e32352030203020312d312e36323520312e3539356c2d372e38383420342e37323161342e33383220342e3338322030203020312d342e33393420306c2d372e3838342d342e353961342e353220342e35322030203020312d312e3538392d312e36313620342e353320342e35332030203020312d2e3630382d322e313837762d362e3033326c2d362e383520342e30363576362e30333261342e323720342e3237203020302030202e35373220322e32303820342e323520342e323520302030203020312e36323520312e3539356c31342e38363420382e36353561342e33383220342e33383220302030203020342e33393420306c31342e3836342d382e36353561342e35343520342e35343520302030203020322e3139382d332e3830335635352e35333861342e323720342e32372030203020302d2e3537322d322e32303820342e323520342e32352030203020302d312e3632352d312e3539356c2d31342e3939332d382e3738367a222066696c6c3d2223464646222f3e3c646566733e3c6c696e6561724772616469656e742069643d2261222078313d2230222079313d2230222078323d22333530222079323d2233353022206772616469656e74556e6974733d227573657253706163654f6e557365223e3c73746f702073746f702d636f6c6f723d2223413742464538222f3e3c73746f70206f66667365743d2231222073746f702d636f6c6f723d2223346236636237222073746f702d6f7061636974793d222e3939222f3e3c2f6c696e6561724772616469656e743e3c2f646566733e3c7465787420783d2232302220793d223330302220666f6e742d73697a653d223234222066696c6c3d2223464646222066696c7465723d2275726c282362292220666f6e742d66616d696c793d22526f626f746f2c20506c7573204a616b617274612053616e732c44656a6156752053616e732c4e6f746f20436f6c6f7220456d6f6a692c73616e732d73657269662220666f6e742d7765696768743d22626f6c64223ef09fa689",
  "linkReferences": {},
  "deployedLinkReferences": {}
}